:020000040800F2
:1000000000200020AD360008DD340008E33400088D
:1000100000000000000000000000000000000000E0
:10002000000000000000000000000000E9340008AB
:100030000000000000000000F3340008FD34000858
:10004000FD360008FD360008FD360008FD360008C4
:10005000FD360008FD360008FD360008FD360008B4
:1000600000000000FD360008FD360008FD360008DF
:10007000FD360008FD360008FD360008FD36000894
:10008000FD360008FD360008FD360008FD36000884
:1000900000000000FD3600080D350008FD360008A0
:1000A000FD360008FD360008FD360008FD36000864
:0C00B000FD360008FD36000800000000CE
:1000BC0010B5064C2378002B07D1054B002B02D032
:1000CC00044800E000BF0123237010BD0002002093
:1000DC0000000000CCA20008044B10B5002B03D08C
:1000EC000349044800E000BF10BDC04600000000FA
:1000FC0004020020CCA200080023C25C0133002AB9
:10010C00FBD1581E7047000002B4714649084900E3
:10011C00095C49008E4402BC7047C04603B471466A
:10012C00490840004900095E49008E4403BC7047F1
:10013C00002243088B4274D303098B425FD3030A1A
:10014C008B4244D3030B8B4228D3030C8B420DD32D
:10015C00FF22090212BA030C8B4202D312120902BB
:10016C0065D0030B8B4219D300E0090AC30B8B42F9
:10017C0001D3CB03C01A5241830B8B4201D38B03A7
:10018C00C01A5241430B8B4201D34B03C01A52414C
:10019C00030B8B4201D30B03C01A5241C30A8B428F
:1001AC0001D3CB02C01A5241830A8B4201D38B027A
:1001BC00C01A5241430A8B4201D34B02C01A52411E
:1001CC00030A8B4201D30B02C01A5241CDD2C30990
:1001DC008B4201D3CB01C01A524183098B4201D30C
:1001EC008B01C01A524143098B4201D34B01C01AF7
:1001FC00524103098B4201D30B01C01A5241C3086F
:10020C008B4201D3CB00C01A524183088B4201D3DD
:10021C008B00C01A524143088B4201D34B00C01AC9
:10022C005241411A00D20146524110467047FFE735
:10023C0001B5002000F0F0F802BDC0460029F7D04F
:10024C0076E7704703460B437FD4002243088B426A
:10025C0074D303098B425FD3030A8B4244D3030B41
:10026C008B4228D3030C8B420DD3FF22090212BA06
:10027C00030C8B4202D31212090265D0030B8B4282
:10028C0019D300E0090AC30B8B4201D3CB03C01A6C
:10029C005241830B8B4201D38B03C01A5241430B47
:1002AC008B4201D34B03C01A5241030B8B4201D337
:1002BC000B03C01A5241C30A8B4201D3CB02C01AA2
:1002CC005241830A8B4201D38B02C01A5241430A1A
:1002DC008B4201D34B02C01A5241030A8B4201D309
:1002EC000B02C01A5241CDD2C3098B4201D3CB01B0
:1002FC00C01A524183098B4201D38B01C01A52415F
:10030C0043098B4201D34B01C01A524103098B4262
:10031C0001D30B01C01A5241C3088B4201D3CB004D
:10032C00C01A524183088B4201D38B00C01A524130
:10033C0043088B4201D34B00C01A5241411A00D2E0
:10034C0001465241104670475DE0CA0F00D0494249
:10035C00031000D34042534000229C4603098B42B9
:10036C002DD3030A8B4212D3FC22890112BA030A41
:10037C008B420CD3890192118B4208D389019211C3
:10038C008B4204D389013AD0921100E08909C30948
:10039C008B4201D3CB01C01A524183098B4201D34A
:1003AC008B01C01A524143098B4201D34B01C01A35
:1003BC00524103098B4201D30B01C01A5241C308AD
:1003CC008B4201D3CB00C01A524183088B4201D31C
:1003DC008B00C01A5241D9D243088B4201D34B0037
:1003EC00C01A5241411A00D20146634652415B1079
:1003FC00104601D34042002B00D54942704763465A
:10040C005B1000D3404201B5002000F005F802BD9E
:10041C000029F8D016E770477047C0468446100094
:10042C0062468C461900634600E0C0461FB501F0D9
:10043C004BFB002801D40021C8421FBD10B501F0B0
:10044C009BFA4042013010BD10B501F03DFB002875
:10045C0001DB002010BD012010BDC04610B501F01D
:10046C0033FB002801DD002010BD012010BDC0466B
:10047C0010B501F0C3FA002801DC002010BD0120EA
:10048C0010BDC04610B501F0B9FA002801DA002001
:10049C0010BD012010BDC046002B11D1002A0FD178
:1004AC00002900D1002802D00021C943080007B45C
:1004BC00024802A14018029003BDC0465DFFFFFF39
:1004CC0003B4684601B5029800F006F8019B9E46FD
:1004DC0002B00CBC7047C046F0B557464E46454678
:1004EC00DE46E0B504000D009246994683B08B427F
:1004FC0030D82DD04946504602F09EFA290006000D
:10050C00200002F099FA331A9846203B34D49B46CB
:10051C0053465A46934042461F00534693401E0092
:10052C00AF423BD8AF4200D179E05B46A41BBD4142
:10053C00002B00DA76E000220023009201930123C5
:10054C005A4693400193012342469340009329E07D
:10055C008242CFD900220023009201930C9B002BE6
:10056C0001D01C605D600098019903B0F0BCBB46E3
:10057C00B246A946A046F0BD42469B4620239B1A94
:10058C005246DA40414613004A468A40170042461A
:10059C001F43534693401E00AF42C3D90022002391
:1005AC00009201934346002BD8D0FB0772081A43E4
:1005BC0046467B080EE0AB4201D1A2420CD8A41AED
:1005CC009D41012024196D410021013E24184D410B
:1005DC00002E06D0AB42EED9013E24196D41002EFF
:1005EC00F8D1009801995B4600196941002B24DB76
:1005FC002B005A464446D3402A00E2401C005B467E
:10060C001500002B2ADB26009E40330026004746AF
:10061C00BE403200801A9941009001919EE7A3429E
:10062C00BCD882E74246202300219B1A002200916D
:10063C0001920122DA40019285E7424620239B1A5F
:10064C002A0046469A402300F340444613432A00AE
:10065C00E2401C005B461500002BD4DA42462F000A
:10066C002023260097409B1ADE403B003343CDE706
:10067C00F8B54746CE464A0243024500C40F500A1D
:10068C00804648005B0A000E9209944680B51E0015
:10069C00814602002D0EDF00C90F8C4224D0281A8F
:1006AC0000280EDD002A3ED16246002A00D1FDE072
:1006BC00421E012800D137E1FF2800D1A9E010002B
:1006CC0039E0002863D04B46521B002D00D0E0E0EF
:1006DC00002F00D1CEE0531E012A00D155E1FF2A94
:1006EC0000D194E01A00D9E02A1A002A00DC99E023
:1006FC00002862D0FF2D00D18BE080236146DB0403
:10070C0019438C461B2A00DCD2E00123DB195A0169
:10071C006AD50135FF2D5BD00122A3491A405B0835
:10072C000B4013431CE0FF2D00D172E08023624686
:10073C00DB041A4394461B2800DC90E00123FB1ACF
:10074C005A0151D59B019E09300002F057F9330034
:10075C0005388340854200DC75E0944A2D1A13401D
:10076C005A0704D00F221A40042A00D004335A012D
:10077C003CD5681CFE2D2BD09B015E0AC0B2C00577
:10078C003043E4072043C0BCB946B046F8BDFE2058
:10079C006A1C104272D1002D00D0AEE0002F00D1A7
:1007AC00ECE063460020002BE9D0FB1A5A0100D480
:1007BC00F3E063460C00DB1BD2E7614600295BD0FB
:1007CC00511E012A00D1A7E0FF2A22D00A0099E786
:1007DC00FF200026D3E7FE216A1C114273D0FF2AAA
:1007EC00F6D0150067447B085A07BBD1DB08FF2DF8
:1007FC000FD05B025E0AE8B2C1E76246002A08D05D
:10080C008022D203134204D04046104201D10C0086
:10081C004346002BDCD08026F6031E437602FF20D5
:10082C00760AACE7002AD6D0421B002D5CD0FF28FC
:10083C00EED08023DB041F431B2A00DC82E0012363
:10084C004D46634463E72022401B0130121A190005
:10085C009340C1405A1E934100250B4380E720234F
:10086C0061461B1A994062460B00C240591E8B41CF
:10087C00134364E70C0043461500B8E76346FE1AC1
:10088C00730145D4002E00D05EE700240020002622
:10089C0075E7FF2BBBD08023DB041F431B2A47DDEE
:1008AC00012362460C004D46D31A49E705009EE72A
:1008BC0061462023D1409B1A62469A4013005A1E6F
:1008CC0093410B4322E7002D46D1002F62D06346A3
:1008DC000020002B00D152E73B0063445A0183D522
:1008EC00324A013513407FE7002FC4D0531E012A32
:1008FC0012D0FF2A8CD01A009EE7002F00D07CE784
:10090C006346002B83D180260024FF20F60336E7B4
:10091C0063460C00DE1B17E73B00634401255A01BC
:10092C0000D461E70225F7E663460125FB1A07E7C9
:10093C0020239B1A38009F403B00D0405A1E934105
:10094C000343AEE720239B1A39009F403B00D14064
:10095C005A1E93410B4373E7002F00D158E76246B0
:10096C00002A00D155E78022D203134200D150E770
:10097C004146114200D04CE743464AE76346002B00
:10098C0083D00C0046460020F9E663460C00DB1BC6
:10099C000135D5E646460020F1E6002B00D023E7D2
:1009AC0000240026EBE6C046FFFFFF7DFFFFFFFBA8
:1009BC0043025B0AF0B54F4646469946D646C30FEE
:1009CC0045009846C0B54B460F1C2D0E00D1CBE010
:1009DC00FF2D00D1CFE08022DB00D2041A4300238C
:1009EC00914600269A467F3D7C027B00640A1B0ED2
:1009FC00FF0F002B00D1A9E0FF2B11D08022E400C7
:100A0C00D204144342467F3B5B197A400020D2B299
:100A1C005D1C0A2E13DD3A000B2E47D047463FE0F3
:100A2C002B00FF33002C1ED1022216434246013507
:100A3C007A40D2B2FF350A2E00DDE4E00220022E0D
:100A4C001CDC013E012E42D802283DD0012866D183
:100A5C0000200021C0050843D2071043E0BCBA4671
:100A6C00B146A846F0BD03221643424601357A40F2
:100A7C00D2B2FF350A2E00DDE4E003200121B140A3
:100A8C00A626F60031420AD19026B600314216D184
:100A9C00B93EFF3E0E421AD0A146824600E0170036
:100AAC0053463A00022B0FD04C4650460328CDD16A
:100ABC008021C90321434902FF20490ACAE780214A
:100ACC000022FF20C903C5E7FF200021C2E7200C4C
:100ADC0049462404240C27000E0C0904090C744309
:100AEC004F4346434843390C001909188C4203D92B
:100AFC0080204002844666443F0408043F0CC01921
:100B0C008401671EBC41090C800E891904438901BC
:100B1C000C43090171D5012361081C400C432B00C7
:100B2C007F33002B51DD610704D00F2121400429B4
:100B3C0000D00434210103D5434B1C402B008033DF
:100B4C00FE2BC1DCA101490AD8B283E7002C2CD1C1
:100B5C00012342461E432B007A400120D2B25D1C79
:100B6C000A2E00DD57E76AE7002B10D1012304267B
:100B7C0000259A4638E7002B04D102230826FF25CE
:100B8C009A4631E703230C26FF259A462CE7484664
:100B9C0001F034FF4A46431F76259A4000236D42EC
:100BAC00914600269A462D1A1EE7200001F026FFDA
:100BBC004246431F9C402B1A763B7A400020D2B20F
:100BCC005D1C0A2E00DD26E739E70121CB1A1B2B11
:100BDC0000DD3DE79E352100AC40D940631E9C41B1
:100BEC0021434B0704D00F230B40042B00D00431BE
:100BFC004B0104D5012000212CE71D008FE7890152
:100C0C000020490A26E702230F2E0CD180214B46E7
:100C1C00C9030B420DD00C420BD1214349023A00BF
:100C2C00FF20490A16E70B2E00D0F7E6A1469A469C
:100C3C0036E780214B46C903194349024246FF203F
:100C4C00490A07E70323DFE7FFFFFFF770B5041E30
:100C5C000ED001F0D3FE9E2301001B1A962B0CDC48
:100C6C0008282CD008398C406402640AD8B201E000
:100C7C0000200024C005204370BD992B0ADD020022
:100C8C0020001B3290400200501E82410520401A69
:100C9C00C4401443052916DC22000F4802406507A6
:100CAC0009D00F252C40042C05D00432540102D558
:100CBC009F2302405B1A9201540AD8B2DAE764020D
:100CCC009620640AD6E74A1F94402200024802404C
:100CDC006507F0D0E5E7C046FFFFFFFBF0B54F46D8
:100CEC004646D6460400C0B51F000B0310004E004C
:100CFC005B0ACD0F610F7A001943E3003C03FF0F31
:100D0C00BC46640A470F2743760D520DC000B94606
:100D1C008046B71A654500D19BE0002F00DC84E0CB
:100D2C00002A00D1BEE0C84A964200D124E18022BC
:100D3C004C4612041443A146382F00DD67E11F2FE7
:100D4C0000DDD6E120224C46D21B9440A2464446FC
:100D5C00FC4020005446044340469040421E9041C3
:100D6C004A46FA400443891A1C1BA3429241524240
:100D7C008B1A9A4653461B0200D4D4E053465A02AF
:100D8C00530A9A465346002B00D104E1504601F019
:100D9C0035FE0300083B20222000D21A5146D040D9
:100DAC00994002009C400A43B34200DA02E19B1BCB
:100DBC00591C1F2900DDA7E02023100026005B1A18
:100DCC009C409840CE40CA40631E9C4130439246A2
:100DDC0000260443630709D00F232340042B05D0BE
:100DEC00231DA342A4416442A2441C0053461B028F
:100DFC0000D49BE0944B01369E4200D1B8E05346A0
:100E0C009249E4080B4019005B07234372054C021E
:100E1C00240B520D1205ED0722432A431800110032
:100E2C00E0BCBA46B146A846F0BD002F48D0971B8F
:100E3C00002E00D00EE10C001C4300D1B7E17C1E4B
:100E4C00012F00D126E2804DAF4200D1D5E1270021
:100E5C0007E1002F00DCB2E0002A47D07A4A964224
:100E6C0000D189E080224C4612041443A146382F4D
:100E7C006BDC1F2F00DC6EE13A004846203AD04074
:100E8C008446202F07D040224846D21B90400200B7
:100E9C004046104380464046421E90416246040044
:100EAC00144357E04A46024300D103E17A1E012F56
:100EBC0000D193E1644CA74200D18AE117003BE7D3
:100ECC00634C721C224200D0E0E00A001A43002E50
:100EDC0000D074E1002A00D1D0E14A46024300D090
:100EEC00E3E14A07DB081343C90829E04A460243F9
:100EFC0000D17DE17A1E012F00D1E0E0524CA742D7
:100F0C0000D166E11700B2E710001F3BD840202942
:100F1C0003D040235B1A9A401443631E9C41002368
:100F2C0000269A460443630700D055E75246E3086F
:100F3C005207134352463700D108434A97421FD0F9
:100F4C0009037A050C0B520D64E742464C461443D8
:100F5C00621E9441E4189C429241524292468A4449
:100F6C0053461B02DFD5384B01369E4200D0B3E00E
:100F7C003200002400234DE74A07DB081343C9085D
:100F8C001A000A4300D100E2802424030C432403FA
:100F9C002D4A240B3EE7200001F030FD03001833EE
:100FAC001F2B00DCF7E62200083882400024B342F5
:100FBC0000DBFCE6F61A254B1A4092460AE7002F96
:100FCC002BD0971B002E00D1B8E01F4CA24200D1B1
:100FDC001CE1802424042143382F00DD1EE11F2F47
:100FEC0000DD9EE120260C00F61B1800B340B44037
:100FFC00F8405E1EB341F94004431C438944444409
:10100C0044459B415B424B449A461600A8E7424636
:10101C004C461443621E9441A6E60D4C721C2242AF
:10102C0000D0A8E00A001A43002E00D00AE1002AE2
:10103C0000D15EE14A46024300D061E14A07DB0879
:10104C001343C9087CE7C046FF070000FFFF7FFF82
:10105C00FE070000CF4CA24200D1CEE08024240435
:10106C002143382F5BDC1F2F00DDDCE020250C003A
:10107C00ED1B1E00AB40AC40FE405D1EAB4134434B
:10108C00F9401C434B465B1A99464CE04A461C1AE5
:10109C00881AA34292415242924602005046121ABA
:1010AC009246120278D45346234300D06AE60021BC
:1010BC00002545E74A07DB081343C9083DE71C1820
:1010CC009C429B4149448A465B429A4453460126C2
:1010DC001B0200D427E702265246AF4B01211A40CF
:1010EC001300214062080A43DC075B089A4614434C
:1010FC0070E63A004C46203AD440A446202F07D044
:10110C0040224846D21B9040020040461043804685
:10111C004046421E904162460400144324E61943A3
:10112C000C00631E9C4143461C1BA0459B41494639
:10113C005B42CB1A9A46654616001BE60C001C4314
:10114C0000D1C7E07C1E012F00D1F9E0914EB742CF
:10115C005CD0270040E720224C464046D21B9440EE
:10116C00F840044340469040421E90414A46FA40A3
:10117C0004438918EEE6874CA24200D1F9E6181810
:10118C0098429B4149445B42CB18DC0740085B0802
:10119C009A4616000443C6E64246D41AA04580413E
:1011AC004B464042591A0B1A9A466546EAE54B469D
:1011BC004A46C0085B0765460343D108BDE6002AD2
:1011CC0000D08EE04B46034317D180210025090344
:1011DC00DAE64A07DB081343C908D1E61C1A4A466B
:1011EC00A3429B41891A5B42CB1A9A460126C1E560
:1011FC004A07DB081343C9089FE64346D8084B4609
:10120C004A465B0765460343D108B9E64346D8080E
:10121C004B464A465B070343D108B1E619430C0021
:10122C00631E9C41EBE63C000D00203CE540202F6A
:10123C0003D04024E41BA1400B431C00631E9C41C3
:10124C002C4370E7002AE1D04A460243C1D04A073A
:10125C00DB0813438022C9081203114208D0484608
:10126C00C408144204D143462100DB08420713434F
:10127C005A0FDB005207DB08134381E64B4603434E
:10128C0000D114E74B464A46C0085B07654603434A
:10129C00D10855E6C41AA04580414B464042591A24
:1012AC000B1A9A466546012664E51C1A4A46A34267
:1012BC0080418A1A4042121A9246120249D542467D
:1012CC00D41AA04580414B464042591A0B1A9A46F3
:1012DC0065467FE54B464A46C0085B070343D10889
:1012EC002BE64A46DB08024338D14A071343C908A8
:1012FC0046E64B464A46C0085B070343D1081FE647
:10130C001C189C429B4149448A465B429A44534672
:10131C001B0200D407E652461F4B01261A40924688
:10132C0001E63C000E00203CE640202F03D0402478
:10133C00E41BA1400B431C00631E9C4134435EE63E
:10134C0043448342804149448A4640421C008244C3
:10135C00BCE65346234300D1A9E6E4E54A07134310
:10136C008022C9081203114209D04846C40814420D
:10137C0005D1434665462100DB08420713435A0F4B
:10138C00DB00DB0852071343FAE50023014A1C007B
:10139C0040E5C046FF070000FFFF7FFFF0B5574652
:1013AC004E464546DE46E0B50C031F004B00814619
:1013BC009246050085B0240B5B0DCE0F002B00D19F
:1013CC0052E1D24A934200D16EE1420FE400144341
:1013DC008022120422439046CD4AC50093469B447A
:1013EC000023994600933C037B005046240B5B0D75
:1013FC00FF0F002B00D11AE1C44A934200D15EE1E9
:10140C00420FE4002243802424041443C04AC10048
:10141C0094465A466344D31A9B46002033007B40C3
:10142C009A464B460F2B27D8BA4A9B00D3589F4657
:10143C00B246009B022B16D0032B00D187E2012B66
:10144C0000D0D5E00023002200251B051343524693
:10145C00D20713432800190005B0F0BCBB46B246B6
:10146C00A946A046F0BD00220025A84BEDE7BA46E0
:10147C00A0460D000090DCE7444500D2C4E100D149
:10148C00BFE101235B429C462E0040460025E3440D
:10149C0023020C0E1C431B0C994623040A021F0C3E
:1014AC00494600920197FEF7C9FE02007A430B04ED
:1014BC00310C804619438A4207D901235B429C4672
:1014CC000919E0448C4200D801E2881A4946FEF71B
:1014DC00B5FE019A360442430904360C03000E4350
:1014EC00B24204D93619013BB44200D8E9E1B01A32
:1014FC004246009E12041A43330C1F00110C9046F6
:10150C00029313043204160C32001B0C5A4303963C
:10151C007B434E437943170CBC469B1963449E4254
:10152C0003D980267602B44661441E0C7118160449
:10153C001B04360C9E19884202D312D1B54210D22C
:10154C0043465A1E009B9C4665441F009D429B418E
:10155C005B421B19C018844200D29EE100D199E174
:10156C009046AE1BB542AD41401A6D42401B8442C1
:10157C0000D1D2E14946FEF761FE019A0B044243C9
:10158C00310C050019438A4200D96CE1881A49468E
:10159C00FEF754FE019A360442430904360C03004C
:1015AC000E43B24200D953E10398B61A02002D043F
:1015BC001D43029F2B041B0C5A437B439C46290C56
:1015CC004843130C844463447943984203D98020E4
:1015DC00400284466144180C12041B04120C40187F
:1015EC009B18864200D200E100D1FBE001231D4391
:1015FC00494B5B44002B00DCAAE06A0700D03DE1BC
:10160C00E9084246D20106D54246444B1A40802393
:10161C009046DB005B44424A934200DD23E742469E
:10162C005B05550752020D43120B5B0D0DE751463E
:10163C00214300D17CE0002C00D1FBE0200001F024
:10164C00DDF902000B3A1D239B1A52460100DA40C9
:10165C00534608398B408C4019001443314B584485
:10166C009B4683440020D9E603002343984644D08C
:10167C00002C00D1CFE0200001F0C0F901000200E5
:10168C000B391D235B1A49461000D9400838844099
:10169C000B004D46234398468540234B9B1A9B4693
:1016AC000023994600939EE60200224390461DD1EA
:1016BC0008229B46022300259146009393E651464F
:1016CC00214309D102234A461A43184B91469C46A2
:1016DC0000240220E344A1E603234A461A43134B99
:1016EC0091469C4651460320E34497E60C229B46C8
:1016FC000323A0469146009375E6042399460023E4
:10170C009B460133002500936DE6C046FF070000A1
:10171C0001FCFFFFF0A20008FF030000FFFFFFFE2B
:10172C00FE070000F30300000DFCFFFF01F8FFFFB4
:10173C004A4601231A439146002401206EE60023F9
:10174C0080229A460025884B12037EE601256D42C5
:10175C000122D21A382A00DD74E61F2A00DCBDE013
:10176C001F214942CB1A4146D9400B00202A04D0F4
:10177C0041467E4A5A4491400D4329004A1E9141EC
:10178C00194307231D0000220D400B4200D1D0E06D
:10179C000F2200230A40042A00D1C7E00A1D8A4206
:1017AC00894149425B1811001A0200D4BEE00123A2
:1017BC000022002549E6802243461203134208D03A
:1017CC00144206D122431203BA460D00664B120B8B
:1017DC003BE68022434612031A431203B246624B85
:1017EC00120B32E6002B00D102E7A6196A1EA642A4
:1017FC0000D289E0864200D29FE000D1AFE0150014
:10180C00F4E6A94200D93CE64346DE0758086B08CB
:10181C001E43ED073CE601F0F1F801000200153122
:10182C0020321C2900DC2CE74B460838834000256D
:10183C00984632E701F0E2F803001A001532203026
:10184C001C2A00DCFFE65446083B00219C4005E7BF
:10185C003619013BB44200D9A6E6B24200D8A3E641
:10186C00831E3619A0E60919013D8C4200D98DE67C
:10187C008A4200D88AE6851E091987E60F222A407B
:10188C00042A00D1BCE6291DA942AD416D42C9080C
:10189C00A844B6E6AF4200D962E6814204D800D033
:1018AC005EE6AE4200D85BE602235B429C46009BA0
:1018BC00E0449C4665449D429B415B421B19C01809
:1018CC004FE6B24200D812E6831E36190FE68A4262
:1018DC0000D8FAE5831E98460919F6E5244B280032
:1018EC005B4441469D409940D0406B1E9D41434610
:1018FC0001432943D3404A0700D155E70F220A4040
:10190C00042A00D04AE74FE71500864200D06DE666
:10191C00009A9A4200D069E66AE6164B5B44002BAB
:10192C0000DC13E701250021A8446AE65D075B0291
:10193C001A0BC90800230D4387E50099023D4A00A4
:10194C008A42BF417F423F19F6190092DDE780229F
:10195C00434612031A431203034B120B75E500990D
:10196C009942EAD31500D3E7FF0700003E040000BC
:10197C001E040000FF030000F0B54E464546DE464F
:10198C0057469046E0B517001A03120B0500844623
:10199C0019480E034C0091465A00DB0F9B46360B40
:1019AC00640DC90F520D844219D0824210D001200F
:1019BC0094420ED14E450CD10120C44509D1594554
:1019CC0017D0002C05D130002843431E984100E06D
:1019DC000120F0BCBB46B246A946A046F0BD330080
:1019EC0001202B43F5D1A242F3D14B463B43F0D11E
:1019FC00E2E70020EDE7C046FF070000F0B54746E0
:101A0C00CE460400180016001B031B0B2D4D4A007C
:101A1C00994680B543000F03A446B0463F0B520DC8
:101A2C00C90F5B0DC00FAA4221D0AB4213D0002AC4
:101A3C0022D13C43002B02D14D462E4322D0002C08
:101A4C0010D0814222D00220013908400138C0BC9C
:101A5C00B946B046F0BD4D462E4329D1002AF0D1EF
:101A6C003C43EED10028F2D101204042EFE73D008B
:101A7C0025431DD19342EED0002BE2D14C46264398
:101A8C00DFD1E0E70020002CE1D0DCE79A420ADC51
:101A9C00E8DB4F45D7D80ED000204F45D7D20029D0
:101AAC00E2D00800D3E74342584140000138CEE76A
:101ABC0002204042CBE7C445C5D80020C445C6D25D
:101ACC00EDE7C046FF070000F0B54746CE460400E0
:101ADC00180016001B031B0B2C4D4A00994680B5B1
:101AEC0043000F03A446B0463F0B520DC90F5B0DCC
:101AFC00C00FAA420DD0AB4210D0002A27D13C43D4
:101B0C00002B11D14D462E430ED10020002C15D0A8
:101B1C000EE03D00254310D1934218D14D462E4383
:101B2C000BD1002A02D13C43002C0BD0814214D0A3
:101B3C00022001390840013800E00220C0BCB9463F
:101B4C00B046F0BD0028F9D101204042F6E7002B49
:101B5C00ECD14C462643E9D1EAE79A4204DD4342F4
:101B6C00584140000138E9E79A42EBDB4F45DFD89A
:101B7C0006D000204F45E1D20029E5D00800DDE772
:101B8C00C445D5D80020C445D8D2F5E7FF070000DE
:101B9C00F0B54546DE4657464E46E0B51F000B03F2
:101BAC001B0B9B464D00CB0F04009146984687B00B
:101BBC006D0D00D1CDE1CE4B9D4200D1E9E15A46ED
:101BCC00430FD2001343802212041A43C3009A46D7
:101BDC00C84B93469C4600230026654400933C0367
:101BEC007B004846240B5B0DFF0F002B00D189E1D5
:101BFC00BF4A934219D0420FE400224380242404AC
:101C0C001443BC4A00219446424663445B19019339
:101C1C00019B7A400133C000D2B202930A2E1CDD24
:101C2C003A000B2E5ED0474656E04946B04B214356
:101C3C00EB18019300292AD18020022200012B00ED
:101C4C0084461643424663447A40D2B202930A2E2B
:101C5C0000DD31E2002000240221022E26DC013EB0
:101C6C00012E52D802294CD0012900D018E10023B2
:101C7C00002400251B052343D20713432800190019
:101C8C0007B0F0BCBB46B246A946A046F0BD8021C9
:101C9C00032209012B008C461643424663447A40CA
:101CAC00D2B202930A2E00DD28E203210125B540B1
:101CBC00AC46A6266346F600354033420BD190263F
:101CCC00B600334218D1B93EFF3E1E421DD0A3468A
:101CDC008246009100E0170000993A00022910D0CA
:101CEC005C4650460329BFD180231B031C432403AD
:101CFC0005007F4B240BBDE7802400227C4B240382
:101D0C00B8E7002400257A4BB4E753461E04360C82
:101D1C001F0C3300010C0004000C434398460300D5
:101D2C007B43994633004B439C4643460D001B0CAA
:101D3C009A467D43CC44D4440095E14504D9802394
:101D4C005B0299464D44009563461B0C1D0063468F
:101D5C001B049C4643461B041B0C98466346434499
:101D6C000393230C984633002404240C63439C46B1
:101D7C0023007B43994643465E435F434E44634690
:101D8C00B2461E0C5644B14503D980235B029946DA
:101D9C004F44330C99463B004B4405936346AC4689
:101DAC001F043F0C3604F619B444634604935B4697
:101DBC001B0C9C465B461F043F0C3B00434399465F
:101DCC00634643439A464B4660461B0C9B4648432E
:101DDC007943514459448A4503D980235B029A467E
:101DEC0050440B0C9A464B461B041B0C99463B006B
:101DFC006343090445464944994663465C436B4337
:101E0C009C464B461B0C98466F433F194744504425
:101E1C00BC4203D980235B029846C444049B009DBA
:101E2C0098464544B542B641734298464B461E040B
:101E3C00059B3C049946360CA4194C44A146834698
:101E4C006E18C1448E428941CB445D4649426D189F
:101E5C009C42A441C1459B41834580418D428941AF
:101E6C005B4264421C434042039B49420143700263
:101E7C003F0C1843E419471EB84164186444F60D2E
:101E8C0061023043EC0D6E020C433043C90100D4A7
:101E9C00F1E00121430801400B43E00718436408BB
:101EAC001549029B8C466344002B00DC97E04107EC
:101EBC0009D00F210140042905D0011D8142804128
:101ECC00404224180800E10106D58021C9008C4647
:101EDC000A4B1C40029B634409498B4200DD10E70E
:101EEC006107C50864025B050D43240B5B0DC1E65D
:101EFC00FF07000001FCFFFFFF030000FFFFFFFED8
:101F0C00FE0700004B46234359D0002C00D1A3E020
:101F1C00200000F073FD010003000B391D22521A42
:101F2C0049461800D1404A46083882408440100087
:101F3C000C43744AEB1A9446424663440193019B4A
:101F4C007A4001330021D2B202930A2E00DD67E6FB
:101F5C0083E65B4603439A462AD05B46002B6DD042
:101F6C00584600F04BFD010003000B391D22521A9C
:101F7C00210018005D46D140083885400A00844095
:101F8C002A439346A2465F4D0026ED1A0023009388
:101F9C0025E65B4603439A4605D100239B46023354
:101FAC00082600931BE6032382460C26009316E6B4
:101FBC0000239B4601330426002500930FE642467E
:101FCC00013301951E43019B7A400133002400200C
:101FDC000121D2B202930A2E00DD21E63DE6012159
:101FEC00C91A382900DD42E61F2947DD1F262500C6
:101FFC007642F31ADD402B00202905D04249029D80
:10200C008C466544AC402043411E8841184307234D
:10201C001D000024054003424AD00F230024034036
:10202C00042B42D0031D83428041404224181800E7
:10203C0023023AD50123002400251BE600F0DEFC28
:10204C0001000300153120331C298FDD08380022D4
:10205C0084409246A34696E700F0D0FC01000300B2
:10206C00153120331C2900DC58E702004C46083A95
:10207C00002094405DE7019B029311E7234B26005F
:10208C009C460300029DCB406544AE401E430300BA
:10209C00AB40581E834130001843CC404307C7D097
:1020AC000F230340042BBDD1C2E765076402240B48
:1020BC00C00800230543DDE5002502230F2E0CD1BB
:1020CC0080245B46240323420ED021420CD10C43C6
:1020DC0024033A000E4B240BCCE50B2E00D0A2E5CA
:1020EC008B46AA460093F7E580245B4624031C43E9
:1020FC00240342465546064B240BBBE54D462100B6
:10210C000323DBE70DFCFFFF3E0400001E04000070
:10211C00FF070000F0B557464E464546DE46E0B593
:10212C000D000400190010002B035B0A620F1A4308
:10213C00E3000C03640A470F2743D04C6E00914612
:10214C0083B04A00C0009846A246760DED0F520DA2
:10215C00C90F0190A24200D1B9E0012461408B4625
:10216C008D4200D18DE0B41AA446002C00DCB7E0FF
:10217C00002A00D1CBE0C14A964200D186E18022F0
:10218C00120417436246382A00DDA4E11F2A00DD41
:10219C001DE2614620223C00521A010090409440FE
:1021AC00421E90416246A0466446D7404A46E140F2
:1021BC004446D21B91460C4304431C1BA342924140
:1021CC004B4652429B1A9A4653461B0200D42BE1B3
:1021DC0053465A02530A9A465346002B00D166E1E5
:1021EC00504600F00BFC0300083B20222000D21AC2
:1021FC005146D040994002009C400A439E4200DD6B
:10220C0064E19B1B591C1F2900DDFEE020231000FC
:10221C0026005B1A9C409840CE40CA40631E9C41ED
:10222C003043924600260443630709D00F23234012
:10223C00042B05D0231DA342A4416442A2441C00DC
:10224C0053461B0200D4F2E08C4B01369E4200D167
:10225C000FE153468A49E4080B4019005B072343FE
:10226C0072054C02240B520D12052243ED072A4332
:10227C001800110003B0F0BCBB46B246A946A046FC
:10228C00F0BDB41AA446002C59DD002A00D1B0E0F0
:10229C00564500D1FAE08022120417436246382AD0
:1022AC0000DDD4E01F2A00DCC0E13900203AD14027
:1022BC006246202A06D064464022121B3C00944001
:1022CC0004430194019C621E94410C43C3E03C0006
:1022DC0004432BD08B468D422ED06A4CA446B4447A
:1022EC006446002C5FD0941BA446002E00D020E145
:1022FC004C461C4300D1C7E161464C1E012900D15C
:10230C0023E25E4DAC4500D1D8E1A4461AE13A0077
:10231C00024300D1E4E02200013A012C00D1C3E1D8
:10232C0056498C4200D1B1E094462BE70124614020
:10233C008B468D4200D016E752498C46B444644615
:10234C00002C00D1D3E0911B8C46002E00D15EE115
:10235C004A498A4200D1BEE180214C4609040C4313
:10236C00A1466146382900DDBAE11F2900DD27E2CC
:10237C002024641A4946A1401E0088466146A340A9
:10238C00CE4041465C1EA341314319430C006346C9
:10239C004946D9407F18241884429B415B429A4697
:1023AC001600BA445DE0384C721C224200D0DFE0CB
:1023BC004A461A43002E00D05CE1002A00D1CFE13E
:1023CC003A00024300D17FE11C1A4A46A3428941DC
:1023DC00D21B4942521A9246120200D40AE2C41A83
:1023EC00A04280414B464042FF1A3B1A9A465D463A
:1023FC001AE73A00024373D02200013A012C00D1B3
:10240C00CBE0544542D0944648E710001F3BD840DF
:10241C00202903D040235B1A9A401443631E9C412D
:10242C00002300269A460443630700D0FEE652467A
:10243C00E308520713435246B446D2080F498C4561
:10244C002AD01203140B62465205520D0CE73C00C5
:10245C000443621E9441E4189C42924152424A4405
:10246C00924653461B02DFD5044B01369E4200D0E8
:10247C00A0E0320000240023F6E6C046FF0700006F
:10248C00FFFF7FFF01F8FFFFFE070000DB084A4655
:10249C00520713434A46D2081900114300D1B5E143
:1024AC008024240314432403D54A240BDCE62000A7
:1024BC0000F0A4FA030018331F2B00DC95E6220071
:1024CC000838824000249E4200DC9AE6F61ACD4B76
:1024DC001A409246A8E63C000443621E94416CE606
:1024EC004A46DB08520713434A46D208A6E7C64CB5
:1024FC00721C224200D0ACE04A461A43002E00D097
:10250C0005E1002A00D156E13A00024300D1DBE09C
:10251C001C189C429B414F44BA465B429A4453461A
:10252C001B0200D480E75246B64B01261A40924655
:10253C007AE7B34CA24200D1C0E080244D4624047B
:10254C002543A9466446382C53DC61461F2C00DD1C
:10255C00CDE020251E002D1B4C46AB40AC40CE40A0
:10256C005D1EAB41344323434C46CC403F1B45E0FE
:10257C004A461C1AD11BA3429241524292460A006F
:10258C005146521A9246120200D583E05346234319
:10259C0000D021E60022002553E71C189C429B41E9
:1025AC004F44BA465B429A44534601261B0200D460
:1025BC003AE702265246934B01211A401300214060
:1025CC0062080A43DC075B089A4614432CE6390080
:1025DC00203AD1406246202A06D064464022121B83
:1025EC003C00944004430194019C621E94410C43B2
:1025FC00E3E5494619430B005C1EA341C41AA042F3
:10260C009B415B42FB1A9A465D461600DCE5494647
:10261C00194300D1AEE0614664460139012C00D16A
:10262C00E0E0774CA44556D08C469AE661462022D1
:10263C003C00521A944001009040A0466446421E51
:10264C0090416246E1404446D7400C430443B944B0
:10265C0001E76B498A4200D10CE7181898429B415C
:10266C004F445B42FB18DC0740085B089A46160097
:10267C000443D9E6002A00D081E03B0003431DD17E
:10268C008022002512030BE7C0087B075D4603433D
:10269C00FA08D3E6C41AA04280414B464042FF1AC6
:1026AC003B1A9A465D4697E51C1A4A46A3429B4143
:1026BC00D71B5B42FB1A9A46012685E5C0087B07AF
:1026CC005D460343FA08E7E64A46DB085207134324
:1026DC004A46D208B5E6C0087B070343FA08DBE696
:1026EC00494619430B00591E8B411C0053E64D46BD
:1026FC00203CE540202905D04024641A4946A140DD
:10270C000B43984643465C1EA3412B4376E7002AB5
:10271C00E1D03A00DB08024300D1B8E64A46520742
:10272C00802413434A462403D208224207D0FE08D1
:10273C00264204D15D463200C3087F073B43590F44
:10274C00DB004907DB080B43A6E6C41AA042804114
:10275C004B464042FF1A3B1A9A465D46012633E52A
:10276C003B00034300D115E7C0087B075D460343DC
:10277C00FA0866E6C0087B070343FA085EE63A00EF
:10278C00DB08024300D182E64A46520780241343F9
:10279C004A462403D208224207D0FE08264204D11E
:1027AC005D463200C3087F073B43590FDB00DB0853
:1027BC0049070B4370E6C0087B070343FA0840E661
:1027CC004C462039CC406146202906D06646402133
:1027DC00891B4E468E40334398464346591E8B41C7
:1027EC001C43D8E51C18844280414F44BA464042F1
:1027FC008244D9E65346234300D1CBE614E6C046C7
:10280C00FF070000FFFF7FFFFE0700000023014AC7
:10281C001C0029E5FF07000070B505000C481C03DF
:10282C0016005B000A034900120B490D240B5B0DCB
:10283C00814208D0064A0020934203D12000304345
:10284C00431E984170BD01202A43FBD1F2E7C046DC
:10285C00FF0700000A0030B5134C530009030500B4
:10286C00090B00205B0DD20FA34204DD0F488342FD
:10287C0002DD0F4BD01830BD8020400301430D48C2
:10288C00C01A1F2808DD0C48C31AD9400B00584247
:10289C00002AF0D11800EEE7084CC540A44663446A
:1028AC0099400B002B43F2E7FE0300001D040000CF
:1028BC00FFFFFF7F3304000013040000EDFBFFFF5C
:1028CC0070B5002816D0C317C5185D40C40F28007A
:1028DC0000F094F8114B1B1A0A2816DC02002E008B
:1028EC00153296400B22121AD5405B052D032D0B89
:1028FC005B0D03E000240023002500261B052B4361
:10290C00E40723433000190070BD0B3885405B058C
:10291C002D0300262D0B5B0DF0E7C0461E040000B6
:10292C0010B5041E10D000F069F80F4B1B1A0A28C2
:10293C0011DC0B222100121AD14015300A035B0561
:10294C008440120B5B0D01E0002300221B05134396
:10295C002000190010BD22000B3882405B051203C9
:10296C000024120B5B0DF1E71E04000070B542024F
:10297C004300C40FFE201B0E591C550A08420CD0F4
:10298C00E02189008C466D07120B63441B05134331
:10299C00E40723432800190070BD002B14D1002D2F
:1029AC001BD0280000F02AF80A281CDC0B232A0074
:1029BC001B1ADA40030015339D400E4B12031B1AF1
:1029CC005B05120B5B0DE1E7002D09D0130B802288
:1029DC0012031A436D07084BD8E700230022D5E7F2
:1029EC000022054BD2E703002A000B3B9A4000253E
:1029FC00E3E7C04689030000FF0700001C21012308
:102A0C001B04984201D3000C10391B0A984201D3C5
:102A1C00000A08391B09984201D30009043902A2A3
:102A2C00105C40187047C04604030202010101010A
:102A3C00000000000000000010B5002903D1FFF7D2
:102A4C00DDFF203002E00800FFF7D8FF10BDC046C4
:102A5C00B0B584B000AF786039607B6828229B5C8D
:102A6C001A007B6892003968D1507B6828229B5CE5
:102A7C000133D9B27B68282299547B6828229B5C4D
:102A8C000A2B03D17B682822002199547B680022F1
:102A9C00DA620F23FB187A682821525C1A700E2315
:102AAC00FB1800221A702EE00F22BB181B78002B8B
:102ABC0006D01100BB181A787B18013A1A7003E083
:102ACC000F23FB1809221A707B68DC6A0E257B1910
:102ADC001A78124B9200D0580F23FB181A787B6887
:102AEC009200D358191CFDF763FF031C191C201C02
:102AFC00FDF7BEFD031C1A1C7B68DA627B191A7881
:102B0C007B1901321A700E23FB181B78092BCBD9B9
:102B1C007B68DB6A181CBD4604B0B0BD0000002009
:102B2C0080B500AF00F0E6FD00F040F800F0BCF915
:102B3C0000F09AF800F084F900F058F900F0D4F89D
:102B4C00154B1B88154A1021FF31180004F026FC88
:102B5C0003001A00124B1A600F4B1B880F4A882176
:102B6C004900180004F01AFC03001A000C4B1A6000
:102B7C00094B1B880B4A1021FF31180004F032FC62
:102B8C0003001A00064B1A60074B1B68FA2252000E
:102B9C005A6300F06FFAF7E728000020300200209B
:102BAC002C02002032020020C002002090B593B00D
:102BBC0000AF10243B19180038231A00002105F02F
:102BCC00F1F93B00180010231A00002105F0EAF976
:102BDC0080239B00180001F01FFF3B1902221A6092
:102BEC003B1980225200DA6021007B1800221A6106
:102BFC007B1840225A617B180222DA617B18022270
:102C0C001A627B1800225A627B1808229A627B187F
:102C1C0080229202DA627B18802292041A637B185B
:102C2C00802292055A637B18180001F041FF031EA5
:102C3C0001D000F013FB3B0007221A603B0002227C
:102C4C005A603B0000229A603B000022DA603B0095
:102C5C000221180002F046FA031E01D000F0FEFA21
:102C6C00C046BD4613B090BD80B500AF1B4B1C4A8F
:102C7C001A601A4B1B4A5A60184B00229A60174B69
:102C8C000122DA60154B00221A61144B00225A61A2
:102C9C00124B00229A61114B0022DA610F4B002279
:102CAC001A620E4B180001F04BF8031E01D000F015
:102CBC00D5FA0A4B0021180001F016FE031E01D0B4
:102CCC0000F0CCFA054B0021180001F059FE031E50
:102CDC0001D000F0C3FAC046BD4680BD6C02002096
:102CEC0000580040BC7D701080B58EB000AF28231A
:102CFC00FB18180010231A00002105F053F91C23AF
:102D0C00FB1818000C231A00002105F04BF93B00AE
:102D1C0018001C231A00002105F044F92F4B304AEF
:102D2C001A602E4B2F4A5A602C4B00229A602B4B68
:102D3C002D4ADA60294B00221A61284B00229A6135
:102D4C00264B180002F078FB031E01D000F086FA27
:102D5C0028217B18802252011A607A181F4B11000F
:102D6C00180002F0B7FF031E01D000F077FA1B4BDE
:102D7C00180002F0B9FB031E01D000F06FFA1C2101
:102D8C007B1800221A607B1800229A607A18134B69
:102D9C001100180003F066FC031E01D000F05EFA6F
:102DAC003B0060221A603B0000225A603B0000226C
:102DBC009A603B0000221A613900084B002218006F
:102DCC0002F088FE031E01D000F048FA034B1800F5
:102DDC0000F0F6FAC046BD460EB080BDC002002021
:102DEC00000400409F0F0000E703000080B500AF17
:102DFC000F4B104A1A600E4B0F4A5A600C4B0022B4
:102E0C009A600B4B0D4ADA60094B00221A61084B91
:102E1C0000225A61064B00229A61054B180002F001
:102E2C000BFB031E01D000F019FAC046BD4680BD55
:102E3C000C030020004801403F1F00000F2700003A
:102E4C0080B500AF164B174A1A60154BE12252029F
:102E5C005A60134B00229A60114B0022DA60104B1F
:102E6C0000221A610E4B0C225A610D4B00229A6102
:102E7C000B4B0022DA610A4B00221A62084B00222B
:102E8C005A62074B00229A62054B180003F06AFC49
:102E9C00031E01D000F0E2F9C046BD4680BDC0461D
:102EAC00580300200044004090B589B000AF0C24BA
:102EBC003B19180014231A00002105F073F83D4B40
:102ECC005A6B3C4B04210A435A633A4B5B6B04220A
:102EDC001340BB60BB68374B5A6B364B01210A431E
:102EEC005A63344B5B6B012213407B607B68314B24
:102EFC005A6B304B02210A435A632E4B5B6B0222F6
:102F0C0013403B603B682C49A023DB0500221800D2
:102F1C0000F0F9FE294B0022CB21180000F0F3FE43
:102F2C003B19274A1A603B1900225A603B190022B0
:102F3C009A603A19A023DB051100180000F062FD1D
:102F4C003B191D4A1A603B1901225A603B19002299
:102F5C009A603B190022DA603A19A023DB051100B4
:102F6C00180000F04FFD3B19CB221A603B190122CF
:102F7C005A603B1900229A603B190022DA603B1917
:102F8C000E4A1900100000F03DFD21007B18802234
:102F9C0052001A607B1800225A607B1800229A603B
:102FAC007B18064A1900100000F02CFDC046BD46E7
:102FBC0009B090BD00100240F082000000040050E7
:102FCC000304000080B500AF0AE0224B1B88224AA4
:102FDC001100180004F04CF903001A001F4B1A6082
:102FEC001D4B1B78002BF0D01B4B00221A70194B79
:102FFC001B881B4A1100180004F080F903001A000A
:10300C00164B1A60134B1B88180004F0DFF80300F2
:10301C001A00124B1A60124B1B881800FDF716FE93
:10302C00021C104B111C1800FFF712FD0D4BDB6A34
:10303C00181CFFF79BFC02000B000B490B4804F01B
:10304C0045FF0A490A48C8230F2203F0E1FBC0469A
:10305C00BD4680BD28000020360200202C02002036
:10306C00340200203C020020E8A200081C020020D0
:10307C005803002080B500AFA023DB050221180007
:10308C0000F024FE03001A00644B1A70A023DB0529
:10309C000121180000F01AFE03001A00604B1A7090
:1030AC008023DA00A023DB051100180000F00EFECF
:1030BC0003001A005B4B1A7080235B005A4A1900FC
:1030CC00100000F003FE03001A00584B1A70534B0B
:1030DC001B78002B34D1524B1B78012B30D1514B28
:1030EC001B78002B27D1524B1B78012B23D1514B32
:1030FC001B78002B0ED1504B0021180002F054FA13
:10310C00494B01220821180000F0FDFD494B01221A
:10311C001A700DE0484B0021180002F023FB424BC3
:10312C0000220821180000F0EEFD424B00221A701C
:10313C000A2000F065FB3B4B1A783D4B1A706AE095
:10314C00364B1B78012B59D1354B1B78002B55D1A5
:10315C008023DA00A023DB051100180000F0B6FD77
:10316C0003001A002F4B1A702E4B1B78002B16D114
:10317C00304B1B78002B4DD12C4B1B78002B49D09E
:10318C002D4B0021180002F00FFA274B01220821C9
:10319C00180000F0B8FD274B01221A703AE0254BBD
:1031AC001B78012B12D1214B1B78002B0ED1224BFB
:1031BC000021180002F0D6FA1B4B0022082118003F
:1031CC0000F0A1FD1B4B00221A7023E0194B1B7859
:1031DC00002B03D1134B1B78012B03D0134B1B7803
:1031EC00002B17D1144B0021180002F0BBFA0E4B28
:1031FC0000220821180000F086FD0BE00E4B002188
:10320C00180002F0AFFA084B00220821180000F059
:10321C007AFD00E0C046C046BD4680BD37020020A6
:10322C003802002039020020000400503A0200202D
:10323C002A0000203B020020C002002080B582B092
:10324C0000AF78607A68044B9A4201D1FFF7BAFE5E
:10325C00C046BD4602B080BD0C03002080B500AF57
:10326C0072B6C046FEE7000080B582B000AF0F4BCF
:10327C001A6C0E4B01210A431A640C4B1B6C012275
:10328C0013407B607B68094BDA6B084B8021490546
:10329C000A43DA63054BDA6B80235B0513403B6012
:1032AC003B68C046BD4602B080BDC046001002401F
:1032BC0090B58BB000AF786014243B191800142320
:1032CC001A00002104F06EFE7B681B681C4A9342B6
:1032DC0031D11C4B5A6B1B4B01210A435A63194BBE
:1032EC005B6B012213403B613B693B19C0225201CD
:1032FC001A6021007B1812225A607B1800229A60F7
:10330C007B180022DA607B1806221A617A18A02337
:10331C00DB051100180000F075FB0A4BDA6B094B4A
:10332C008021C9030A43DA63064BDA6B8023DB0383
:10333C001340FB60FB68C046BD460BB090BDC04659
:10334C00005800400010024080B584B000AF786097
:10335C007B681B68174A93420CD1174BDA6B164BE0
:10336C0002210A43DA63144BDB6B02221340FB602D
:10337C00FB681AE07B681B68104A934215D10E4B10
:10338C001A6C0D4B8021C9020A431A640A4B1A6C41
:10339C008023DB021340BB60BB6800220021162097
:1033AC0000F0FEFA162000F010FBC046BD4604B03B
:1033BC0080BDC0460004004000100240004801409F
:1033CC0090B589B000AF78600C243B191800142319
:1033DC001A00002104F0E6FD7B681B68144A934236
:1033EC0021D1144B5A6B134B02210A435A63114BD4
:1033FC005B6B02221340BB60BB6821007B18102260
:10340C001A607B1802225A607B1800229A607B1883
:10341C000022DA607B1801221A617B18064A190017
:10342C00100000F0EFFAC046BD4609B090BDC04692
:10343C0000040040001002400004005090B58BB016
:10344C0000AF786014243B19180014231A000021D3
:10345C0004F0A8FD7B681B681B4A934230D11B4BC0
:10346C00DA6B1A4B802189020A43DA63174BDA6B49
:10347C0080239B0213403B613B69144B5A6B134BEB
:10348C0001210A435A63114B5B6B01221340FB6011
:10349C00FB6821007B180C221A607B1802225A60F0
:1034AC007B1800229A607B180022DA607B180122BC
:1034BC001A617A18A023DB051100180000F0A2FA9B
:1034CC00C046BD460BB090BD004400400010024009
:1034DC0080B500AFFEE780B500AFFEE780B500AF6A
:1034EC00C046BD4680BD80B500AFC046BD4680BD60
:1034FC0080B500AF00F068F9C046BD4680BD000045
:10350C0080B500AF034B180002F0B2F9C046BD46BF
:10351C0080BDC0460C03002080B500AF012318000D
:10352C00BD4680BD80B582B000AF7860396004F0D4
:10353C0093FD030016221A6001235B421800BD465E
:10354C0002B080BD80B582B000AF786001235A42D2
:10355C007B6811001800FFF7E5FFFEE780B586B029
:10356C0000AFF860B9607A6000237B610AE000E08C
:10357C0000BF0100BB685A1CBA60CAB21A707B69E2
:10358C0001337B617A697B689A42F0DB7B681800B7
:10359C00BD4606B080BD80B586B000AFF860B9609E
:1035AC007A6000237B6109E0BB685A1CBA601B7807
:1035BC00180000E000BF7B6901337B617A697B688E
:1035CC009A42F1DB7B681800BD4606B080BD80B521
:1035DC0082B000AF786001235B421800BD4602B098
:1035EC0080BD80B582B000AF786039603B688022C6
:1035FC0092015A6000231800BD4602B080BD80B510
:10360C0082B000AF786001231800BD4602B080BDC7
:10361C0080B584B000AFF860B9607A600023180000
:10362C00BD4604B080BD000080B586B000AF7860A8
:10363C00144A154BD31A7B617B693B61134B1B6896
:10364C00002B02D1114B124A1A60104B1A687B687E
:10365C00D3183A699A4207D204F0FEFC03000C22FC
:10366C001A6001235B4209E0084B1B68FB60074BA7
:10367C001A687B68D218054B1A60FB681800BD46A7
:10368C0006B080BD0020002000040000EC030020E8
:10369C004005002080B500AFC046BD4680BD00008F
:1036AC000D488546FFF7F6FF0C480D490D4A0023DF
:1036BC0002E0D458C4500433C4188C42F9D30A4ADB
:1036CC000A4C002301E013600432A242FBD304F045
:1036DC00C9FCFFF725FAFEE70020002000000020BF
:1036EC00000200207CA700080002002040050020FA
:1036FC00FEE7000080B582B000AFFB1D00221A70FF
:10370C000B4B1A680A4B802149000A431A600320AC
:10371C0000F010F8031E03D0FB1D01221A7001E00B
:10372C00FFF7A2FDFB1D1B781800BD4602B080BD43
:10373C000020024090B585B000AF78600F23FB18D5
:10374C0000221A701D4B1B78002B2BD01C4B1C68B5
:10375C001A4B1B781900FA239800FCF7E9FC0300BC
:10376C0019002000FCF7E4FC0300180000F03DF900
:10377C00031E12D17B68032B0AD8796801235B42A4
:10378C000022180000F00CF90E4B7A681A600DE05C
:10379C000F23FB1801221A7008E00F23FB180122DB
:1037AC001A7003E00F23FB1801221A700F23FB1869
:1037BC001B781800BD4605B090BDC04634000020F3
:1037CC002C0000203000002080B500AF054B1B788A
:1037DC001A00054B1B68D218034B1A60C046BD4635
:1037EC0080BDC04634000020F003002080B500AF3F
:1037FC00024B1B681800BD4680BDC046F00300207C
:10380C0080B584B000AF7860FFF7F0FF0300BB60B9
:10381C007B68FB60FB68013305D00A4B1B781A00F0
:10382C00FB689B18FB60C046FFF7E0FF0200BB681B
:10383C00D31AFA689A42F7D8C046C046BD4604B0BF
:10384C0080BDC0463400002080B582B000AF0200BD
:10385C00FB1D1A70FB1D1B787F2B09D8FB1D1B78D9
:10386C001A001F231A40044B012191400A001A60D0
:10387C00C046BD4602B080BD00E100E090B583B00B
:10388C0000AF02003960FB1D1A70FB1D1B787F2BEB
:10389C0028D82F4AFB1D1B785BB29B08C0339B00BA
:1038AC009B58FA1D1278110003220A40D200FF2106
:1038BC0091400A00D2431A4011003B689B01FF2241
:1038CC001A40FB1D1B78180003230340DB009A40B1
:1038DC001F48FB1D1B785BB29B080A43C0339B003F
:1038EC001A5031E01B4AFB1D1B7819000F230B40AB
:1038FC00083B9B0806339B00D31804331B68FA1D46
:10390C001278110003220A40D200FF2191400A00D4
:10391C00D2431A4011003B689B01FF221A40FB1D49
:10392C001B78180003230340DB009A400948FB1D59
:10393C001B781C000F232340083B9B080A430633CB
:10394C009B00C31804331A60C046BD4603B090BD3B
:10395C0000E100E000ED00E080B582B000AF7860DF
:10396C007B685A1E80235B049A4201D3012310E02A
:10397C000A4B7A68013A5A6001235B420321180012
:10398C00FFF77CFF054B00229A60044B07221A605C
:10399C0000231800BD4602B080BDC04610E000E018
:1039AC0080B584B000AFB9607A600F217B18021C1F
:1039BC001A70BA687B181B785BB211001800FFF7FD
:1039CC005DFFC046BD4604B080BD80B582B000AF7F
:1039DC000200FB1D1A70FB1D1B785BB21800FFF771
:1039EC0033FFC046BD4602B080BD80B582B000AF8B
:1039FC0078607B681800FFF7AFFF03001800BD4626
:103A0C0002B080BD80B586B000AF7860396000230D
:103A1C007B6147E13B681B6801217A6991400A0090
:103A2C001340FB60FB68002B00D138E13B685B68FE
:103A3C0003221340012B05D03B685B680322134023
:103A4C00022B30D17B689B683B617B695B00032256
:103A5C009A401300DA433B6913403B613B68DA68D8
:103A6C007B695B009A4013003A6913433B617B68A6
:103A7C003A699A607B685B683B6101227B699A407A
:103A8C001300DA433B6913403B613B685B681B09DD
:103A9C0001221A407B699A4013003A6913433B6137
:103AAC007B683A695A603B685B6803221340032BBE
:103ABC0017D07B68DB683B617B695B0003229A4013
:103ACC001300DA433B6913403B613B689A687B699E
:103ADC005B009A4013003A6913433B617B683A6977
:103AEC00DA603B685B6803221340022B23D17B69AD
:103AFC00DA087B6808329200D3583B617B69072255
:103B0C0013409B000F229A401300DA433B69134089
:103B1C003B613B681A697B6907210B409B009A400B
:103B2C0013003A6913433B617B69DA087B680832FE
:103B3C0092003969D1507B681B683B617B695B00E3
:103B4C0003229A401300DA433B6913403B613B6804
:103B5C005B6803221A407B695B009A4013003A6948
:103B6C0013433B617B683A691A603B685A68C0230F
:103B7C009B02134000D192E0504A7B699B0818339A
:103B8C009B009B583B617B6903221340DB000F2297
:103B9C009A401300DA433B6913403B617A68A023D7
:103BAC00DB059A4213D07B68454A93420DD07B6863
:103BBC00444A934207D07B68434A934201D1032382
:103BCC0006E0052304E0022302E0012300E00023C9
:103BDC007A6903210A40D20093403A6913433B614E
:103BEC0036497B699B0818339B003A695A50334B12
:103BFC001B683B61FB68DA433B6913403B613B68E4
:103C0C005A6880235B03134003D03A69FB68134363
:103C1C003B612A4B3A691A60284B5B683B61FB6835
:103C2C00DA433B6913403B613B685A6880239B0332
:103C3C00134003D03A69FB6813433B611F4B3A694D
:103C4C005A601E4A8423D3583B61FB68DA433B69B4
:103C5C0013403B613B685A6880239B02134003D09E
:103C6C003A69FB6813433B61144984223B698B50CE
:103C7C00124A8023D3583B61FB68DA433B691340FB
:103C8C003B613B685A6880235B02134003D03A695E
:103C9C00FB6813433B61094980223B698B507B696C
:103CAC0001337B613B681A687B69DA40131E00D0D4
:103CBC00B0E6C046C046BD4606B080BD0018024006
:103CCC000004005000080050000C005080B584B077
:103CDC0000AF78600A00BB1C1A807B681B69BA1C99
:103CEC001288134004D00F23FB1801221A7003E032
:103CFC000F23FB1800221A700F23FB181B781800D7
:103D0C00BD4604B080BD80B582B000AF78600800BD
:103D1C001100BB1C021C1A807B1C0A1C1A707B1C19
:103D2C001B78002B04D0BB1C1A887B689A6103E0BB
:103D3C00BB1C1A887B689A62C046BD4602B080BD27
:103D4C0080B582B000AF78607B68002B01D1012375
:103D5C0082E07B6841229B5CDBB2002B07D17B6845
:103D6C004022002199547B681800FFF7A1FA7B6868
:103D7C004122242199547B681B681A687B681B6854
:103D8C0001218A431A607B685A687B681B68344936
:103D9C000A401A617B681B689A687B681B6831490A
:103DAC000A409A607B68DB68012B08D17B689A68B3
:103DBC007B681B68802109020A439A6007E07B68D4
:103DCC009A687B681B68842109020A439A607B68A5
:103DDC00DB68022B04D17B681B68802212015A60BD
:103DEC007B681B685A687B681B681F490A435A60CA
:103DFC007B681B68DA687B681B681A490A40DA60C2
:103E0C007B681A697B685B691A4311007B689B6944
:103E1C001A027B681B680A43DA607B68D9697B6885
:103E2C001A6A7B681B680A431A607B681B681A68ED
:103E3C007B681B6801210A431A607B6800225A6464
:103E4C007B684122202199547B6800221A637B688D
:103E5C0042220021995400231800BD4602B080BDB7
:103E6C00FFFFFFF0FF7FFFFF0080000290B589B0DD
:103E7C0002AFF8600C00100019000A23FB18221C7A
:103E8C001A800823FB18021C1A80BB1D0A1C1A80FE
:103E9C00FB6841229B5CDBB2202B00D00CE1BB6A9F
:103EAC00002B04D02C23FB181B88002B05D1FB689E
:103EBC00802292005A640123FFE0FB6840229B5C45
:103ECC00012B01D10223F8E0FB6840220121995417
:103EDC00FFF78CFC03007B6180231902F8687B6977
:103EEC0000931923012200F00BFB031E01D00123C8
:103EFC00E3E0FB68412221219954FB6842224021D6
:103F0C009954FB6800225A64FB68BA6A5A62FB68CF
:103F1C002C22BA1812885A85FB6800225A63BB1DE2
:103F2C001C880823FB181A880A23FB181988F868C0
:103F3C007B6901933B6B0093230000F0F9F9031E9E
:103F4C0005D0FB684022002199540123B5E0FB68A1
:103F5C005B8D9BB2FF2B11D9FB68FF221A85FB6886
:103F6C001B8DDAB280235C040A23FB181988F868CD
:103F7C0000230093230000F07DFC12E0FB685B8DB6
:103F8C009AB2FB681A85FB681B8DDAB280239C04FD
:103F9C000A23FB181988F86800230093230000F00B
:103FAC0069FC7A69396BFB68180000F0E8FA031EAB
:103FBC0001D0012381E0FB685B6A1A78FB681B68FF
:103FCC009A62FB685B6A5A1CFB685A62FB685B8DE1
:103FDC009BB2013B9AB2FB685A85FB681B8D013B77
:103FEC009AB2FB681A85FB685B8D9BB2002B3AD0AA
:103FFC00FB681B8D002B36D13A6BF8687B690093FC
:10400C0013000022802100F07BFA031E01D0012353
:10401C0053E0FB685B8D9BB2FF2B11D9FB68FF2231
:10402C001A85FB681B8DDAB280235C040A23FB180B
:10403C001988F86800230093230000F01BFC12E0A1
:10404C00FB685B8D9AB2FB681A85FB681B8DDAB234
:10405C0080239C040A23FB181988F868002300931A
:10406C00230000F007FCFB685B8D9BB2002B98D102
:10407C007A69396BFB68180000F0C0FA031E01D096
:10408C0001231AE0FB681B682022DA61FB681B68BD
:10409C005A68FB681B680B490A405A60FB6841224E
:1040AC0020219954FB68422200219954FB6840223C
:1040BC0000219954002300E002231800BD4607B0EC
:1040CC0090BDC04600E800FE90B589B002AFF86024
:1040DC000C00100019000A23FB18221C1A8008235C
:1040EC00FB18021C1A80BB1D0A1C1A80FB6841229B
:1040FC009B5CDBB2202B00D010E1BB6A002B04D000
:10410C002C23FB181B88002B05D1FB688022920006
:10411C005A64012303E1FB6840229B5C012B01D113
:10412C000223FCE0FB68402201219954FFF75EFB5F
:10413C0003007B6180231902F8687B6900931923C3
:10414C00012200F0DDF9031E01D00123E7E0FB683A
:10415C00412222219954FB68422240219954FB6848
:10416C0000225A64FB68BA6A5A62FB682C22BA189D
:10417C0012885A85FB6800225A63BB1D1C880823D1
:10418C00FB181A880A23FB181988F8687B690193B5
:10419C003B6B0093230000F02FF9031E05D0FB6846
:1041AC004022002199540123B9E0FB685B8D9BB23E
:1041BC00FF2B11D9FB68FF221A85FB681B8DDAB225
:1041CC0080235C040A23FB181988F868564B00936B
:1041DC00230000F04FFB12E0FB685B8D9AB2FB688A
:1041EC001A85FB681B8DDAB280239C040A23FB180A
:1041FC001988F8684C4B0093230000F03BFB3A6B9A
:10420C00F8687B69009313000022042100F078F910
:10421C00031E01D0012382E0FB681B685A6AFB680D
:10422C005B6AD2B21A70FB685B6A5A1CFB685A62F2
:10423C00FB681B8D013B9AB2FB681A85FB685B8D92
:10424C009BB2013B9AB2FB685A85FB685B8D9BB2B3
:10425C00002B3AD0FB681B8D002B36D13A6BF868DB
:10426C007B69009313000022802100F049F9031EA2
:10427C0001D0012353E0FB685B8D9BB2FF2B11D95E
:10428C00FB68FF221A85FB681B8DDAB280235C0465
:10429C000A23FB181988F86800230093230000F008
:1042AC00E9FA12E0FB685B8D9AB2FB681A85FB6831
:1042BC001B8DDAB280239C040A23FB181988F8683A
:1042CC0000230093230000F0D5FAFB685B8D9BB2B2
:1042DC00002B94D17A69396BFB68180000F08EF9C9
:1042EC00031E01D001231AE0FB681B682022DA614F
:1042FC00FB681B685A68FB681B680C490A405A60CB
:10430C00FB68412220219954FB68422200219954D8
:10431C00FB68402200219954002300E0022318007E
:10432C00BD4607B090BDC0460024008000E800FEEA
:10433C00B0B586B002AFF8600C00100019000A2569
:10434C007B19221C1A800823FB18021C1A80BB1D27
:10435C000A1C1A80BB1D1B88DAB280235C047B19F3
:10436C001988F868234B0093230000F083FA7A6ACB
:10437C00396AFB68180000F002F9031E01D0012312
:10438C0033E0BB1D1B88012B07D10823FB181B88AE
:10439C00DAB2FB681B689A6219E00823FB181B88C9
:1043AC001B0A9BB2DAB2FB681B689A627A6A396A9A
:1043BC00FB68180000F0E3F8031E01D0012314E0A1
:1043CC000823FB181B88DAB2FB681B689A623A6AEE
:1043DC00F8687B6A009313000022802100F090F8AB
:1043EC00031E01D0012300E000231800BD4604B0D9
:1043FC00B0BDC04600200080B0B586B002AFF860FA
:10440C000C00100019000A257B19221C1A800823A5
:10441C00FB18021C1A80BB1D0A1C1A80BB1D1B88B2
:10442C00DAB27B191988F868234B0093002300F04B
:10443C0021FA7A6A396AFB68180000F0A0F8031EAA
:10444C0001D0012333E0BB1D1B88012B07D10823AE
:10445C00FB181B88DAB2FB681B689A6219E0082308
:10446C00FB181B881B0A9BB2DAB2FB681B689A62AA
:10447C007A6A396AFB68180000F081F8031E01D0D3
:10448C00012314E00823FB181B88DAB2FB681B68B5
:10449C009A623A6AF8687B6A009313000022402102
:1044AC0000F02EF8031E01D0012300E000231800B9
:1044BC00BD4604B0B0BDC0460020008080B582B0BF
:1044CC0000AF78607B681B689B6902221340022B4B
:1044DC0003D17B681B6800229A627B681B689B690E
:1044EC0001221340012B07D07B681B689A697B68FB
:1044FC001B6801210A439A61C046BD4602B080BDCB
:10450C0080B584B000AFF860B9603B60FB1D1A70D9
:10451C0021E03B6801331ED0FFF768F90200BB694C
:10452C00D31A3A689A4202D33B68002B13D1FB682A
:10453C005B6C20221A43FB685A64FB6841222021E1
:10454C009954FB68422200219954FB6840220021B7
:10455C00995401230FE0FB681B689B69BA681340F0
:10456C00BA68D31A5A425341DBB21A00FB1D1B78AE
:10457C009A42CED000231800BD4604B080BD80B551
:10458C0084B000AFF860B9607A602BE07A68B968E3
:10459C00FB68180000F06EF8031E01D0012329E01F
:1045AC00BB6801331ED0FFF721F902007B68D31AD8
:1045BC00BA689A4202D3BB68002B13D1FB685B6CC0
:1045CC0020221A43FB685A64FB684122202199542B
:1045DC00FB68422200219954FB6840220021995427
:1045EC00012307E0FB681B689B6902221340022B26
:1045FC00CCD100231800BD4604B080BD80B584B07A
:10460C0000AFF860B9607A6028E07A68B968FB6836
:10461C00180000F02FF8031E01D0012326E0FFF74D
:10462C00E5F802007B68D31ABA689A4202D3BB68D9
:10463C00002B13D1FB685B6C20221A43FB685A6475
:10464C00FB68412220219954FB6842220021995495
:10465C00FB68402200219954012307E0FB681B688A
:10466C009B6920221340202BCFD100231800BD467C
:10467C0004B080BD90B58BB000AFF860B9607A60C3
:10468C002723FB1800221A70FB681B689B69BB610F
:10469C0000233B627B68FB61BB691022134000D195
:1046AC0082E0FB681B681022DA6160E027243B196A
:1046BC003A1912781A70BB68013358D0FFF796F884
:1046CC000200FB69D31ABA689A4206D33B193A190D
:1046DC0012781A70BB68002B49D1FB681B685A68AA
:1046EC008023DB0113407B6113203B18FA684221C5
:1046FC00525C1A70FB681B689A6980231B021A4073
:10470C0080231B029A4226D17A698023DB019A42CC
:10471C0021D03B181B78202B1DD0FB681B685A68D6
:10472C00FB681B688021C9010A435A60FFF75EF8D9
:10473C000300FB610FE0FFF759F80200FB69D31A85
:10474C00192B08D93B6A202213433B622723FB1801
:10475C0001221A700BE0FB681B689B692022134036
:10476C0027217A18791809781170202BE3D1FB686E
:10477C001B689B6920221340202B04D02723FB1895
:10478C001B78002B92D02723FB181B78002B03D10E
:10479C00FB681B682022DA613B6A042213433B62EC
:1047AC002723FB1801221A70FB681B689B69BB61ED
:1047BC00BA6980235B0013400CD03B6A012213437F
:1047CC003B62FB681B6880225200DA612723FB18CE
:1047DC0001221A70BA698023DB0013400CD03B6AAB
:1047EC00082213433B62FB681B688022D200DA610B
:1047FC002723FB1801221A70BA6980239B001340EF
:10480C000CD03B6A022213433B62FB681B6880227C
:10481C009200DA612723FB1801221A702723FB1858
:10482C001B78002B1DD0FB681800FFF747FEFB68B8
:10483C001B685A68FB681B680D490A405A60FB6884
:10484C005A6C3B6A1A43FB685A64FB68412220216C
:10485C009954FB68422200219954FB6840220021A4
:10486C0099542723FB181B781800BD460BB090BD3C
:10487C0000E800FE90B587B000AFF86008001100AA
:10488C007B600A243B19021C1A8009203B180A1C65
:10489C001A703B191B889B059A0D3B181B78190441
:1048AC00FF231B040B401A437B681A43BB6A134358
:1048BC005B005B087B61FB681B685B68BA6A510D27
:1048CC008022D2000A4007490A43D2431A40110001
:1048DC00FB681B687A690A435A60C046BD4607B03C
:1048EC0090BDC046FF63FF0380B582B000AF786017
:1048FC0039607B6841229B5CDBB2202B38D17B6812
:10490C0040229B5C012B01D1022332E07B684022C8
:10491C00012199547B684122242199547B681B689E
:10492C001A687B681B6801218A431A607B681B68C4
:10493C001A687B681B6811490A401A607B681B68FF
:10494C0019687B681B683A680A431A607B681B68A5
:10495C001A687B681B6801210A431A607B68412234
:10496C00202199547B68402200219954002300E0B7
:10497C0002231800BD4602B080BDC046FFEFFFFF0A
:10498C0080B584B000AF786039607B6841229B5C55
:10499C00DBB2202B39D17B6840229B5C012B01D1EF
:1049AC00022333E07B684022012199547B68412229
:1049BC00242199547B681B681A687B681B68012149
:1049CC008A431A607B681B681B68FB60FB68114A92
:1049DC001340FB603B681B02FA681343FB607B6867
:1049EC001B68FA681A607B681B681A687B681B680E
:1049FC0001210A431A607B684122202199547B686B
:104A0C00402200219954002300E002231800BD46E7
:104A1C0004B080BDFFF0FFFF80B584B000AF7860BC
:104A2C00194B1B68194A13401900174B7A680A4333
:104A3C001A607A6880239B009A421FD1144B1A6823
:104A4C0013005B009B185B0012491800FBF770FB0E
:104A5C0003000133FB6008E0FB68002B03D0FB680C
:104A6C00013BFB6001E0032309E0074B5A698023FB
:104A7C00DB001A408023DB009A42EDD000231800A3
:104A8C00BD4604B080BDC04600700040FFF9FFFF7A
:104A9C002C00002040420F0080B500AF034B9A68F9
:104AAC00E023DB0113401800BD4680BD001002401E
:104ABC0080B588B000AF78607B68002B01D10123F2
:104ACC00FEE27B681B680122134000D17CE0C34BE3
:104ADC009B6838221340BB61C04BDB680322134038
:104AEC007B61BB69102B02D17B69032B02D0BB69A4
:104AFC00082B0BD1B94B1A6880239B02134062D050
:104B0C007B685B68002B5ED10123D9E27B685A6815
:104B1C0080235B029A4207D1B04B1A68AF4B8021BD
:104B2C0049020A431A6020E07B685A68A023DB0222
:104B3C009A420ED1A94B1A68A84B8021C9020A438C
:104B4C001A60A64B1A68A54B802149020A431A60C9
:104B5C000BE0A24B1A68A14BA1490A401A609F4B6B
:104B6C001A689E4B9F490A401A607B685B68002B51
:104B7C0014D0FEF73BFE03003B6108E0FEF736FE67
:104B8C0002003B69D31A642B01D9032398E2934B9F
:104B9C001A6880239B021340F0D015E0FEF726FE26
:104BAC0003003B6108E0FEF721FE02003B69D31ACB
:104BBC00642B01D9032383E2884B1A6880239B0260
:104BCC001340F0D100E0C0467B681B680222134002
:104BDC0000D199E0814B9B6838221340BB617F4B1D
:104BEC00DB68032213407B61BB69102B02D17B690C
:104BFC00022B02D0BB69002B35D1784B1A6880236D
:104C0C00DB00134005D07B68DB68002B01D101234E
:104C1C0056E2724B5B68744A134019007B685B69FF
:104C2C001A026E4B0A435A60BB69002B12D16B4BB4
:104C3C001B686E4A134019007B681A69674B0A435C
:104C4C001A60664B1B68DB0A07221340684ADA407D
:104C5C00684B1A60684B1B681800FEF76BFD031E4F
:104C6C0051D001232CE27B68DB68002B30D05B4BEE
:104C7C001B685E4A134019007B681A69574B0A433C
:104C8C001A60564B1A68554B802149000A431A602A
:104C9C00FEF7ACFD03003B6108E0FEF7A7FD020048
:104CAC003B69D31A022B01D9032309E24B4B1A6837
:104CBC008023DB001340F0D0484B5B684A4A13401A
:104CCC0019007B685B691A02444B0A435A601BE06B
:104CDC00424B1A68414B49490A401A60FEF786FD5F
:104CEC0003003B6108E0FEF781FD02003B69D31A2B
:104CFC00022B01D90323E3E1384B1A688023DB0034
:104D0C001340F0D100E0C0467B681B6808221340BA
:104D1C0047D0324B9B6838221340182B0AD12F4BAB
:104D2C001B6E022213403CD07B689B69002B38D150
:104D3C000123C5E17B689B69002B19D0274B1A6EA8
:104D4C00264B01210A431A66FEF750FD03003B6116
:104D5C0008E0FEF74BFD02003B69D31A022B01D988
:104D6C000323ADE11D4B1B6E02221340F1D018E062
:104D7C001A4B1A6E194B01218A431A66FEF736FD3F
:104D8C0003003B6108E0FEF731FD02003B69D31ADA
:104D9C00022B01D9032393E1104B1B6E022213400B
:104DAC00F1D17B681B680422134000D1C6E01F239D
:104DBC00FB1800221A70094B9B6838221340202BD9
:104DCC001ED1064BDB6D0222134000D1B6E07B688E
:104DDC009B68002B00D0B1E0012371E10010024070
:104DEC00FFFFFEFFFFFFFBFFFF80FFFFFFC7FFFF83
:104DFC000024F4002C00002030000020FFFEFFFFF8
:104E0C00B14BDA6B80235B05134001D1012300E029
:104E1C000023002B11D0AC4BDA6BAB4B8021490536
:104E2C000A43DA63A84BDA6B80235B051340FB6003
:104E3C00FB681F23FB1801221A70A44B1A688023ED
:104E4C005B0013401AD1A14B1A68A04B802149007A
:104E5C000A431A60FEF7CAFC03003B6108E0FEF748
:104E6C00C5FC02003B69D31A022B01D9032327E1AD
:104E7C00964B1A6880235B001340F0D07B689B68CC
:104E8C00012B06D1904BDA6D8F4B01210A43DA6569
:104E9C001CE07B689B68052B0CD18B4BDA6D8A4B25
:104EAC0004210A43DA65884BDA6D874B01210A43EA
:104EBC00DA650BE0844BDA6D834B01218A43DA65AA
:104ECC00814BDA6D804B04218A43DA657B689B68E1
:104EDC00002B14D0FEF78AFC03003B6109E0FEF7BF
:104EEC0085FC02003B69D31A794A934201D903230A
:104EFC00E6E0754BDB6D02221340F0D013E0FEF7B9
:104F0C0075FC03003B6109E0FEF770FC02003B6995
:104F1C00D31A6F4A934201D90323D1E06A4BDB6D5C
:104F2C0002221340F0D11F23FB181B78012B05D153
:104F3C00654BDA6B644B67490A40DA637B68DB6963
:104F4C00002B00D1BBE0604B9B6838221340102B28
:104F5C0000D17BE07B68DB69022B56D15A4B1A6877
:104F6C00594B5D490A401A60FEF740FC03003B6157
:104F7C0008E0FEF73BFC02003B69D31A022B01D977
:104F8C0003239DE0504B1A6880239B041340F0D1FF
:104F9C004D4BDB68514A134019007B681A6A7B68D9
:104FAC005B6A1A437B689B6A1B021A437B68DB6A49
:104FBC001A437B681B6B1A437B685B6B1A43424B2F
:104FCC000A43DA60404B1A683F4B802149040A437C
:104FDC001A603D4BDA683C4B802149050A43DA6084
:104FEC00FEF704FC03003B6108E0FEF7FFFB020048
:104FFC003B69D31A022B01D9032361E0324B1A68A7
:10500C0080239B041340F0D059E02F4B1A682E4B91
:10501C0031490A401A60FEF7E9FB03003B6108E0E6
:10502C00FEF7E4FB02003B69D31A022B01D90323E0
:10503C0046E0254B1A6880239B041340F0D1224B89
:10504C00DA68214B26490A40DA6038E07B68DB6974
:10505C00012B01D1012333E01B4BDB687B617B69A6
:10506C0003221A407B681B6A9A4226D17B69702204
:10507C001A407B685B6A9A421FD17A69FE23DB0176
:10508C001A407B689B6A1B029A4216D17A69F823F4
:10509C009B031A407B68DB6A9A420ED17A69E02343
:1050AC001B051A407B681B6B9A4206D17B695B0F10
:1050BC005A077B685B6B9A4201D0012300E0002306
:1050CC001800BD4608B080BD0010024000700040C2
:1050DC0088130000FFFFFFEFFFFFFFFE8C80C11164
:1050EC00FCFFFEEE80B584B000AF786039607B6861
:1050FC00002B01D10123E9E0764B1B6807221340FA
:10510C003A689A421ED9734B1B68072293431900C5
:10511C00704B3A680A431A60FEF768FB0300FB60A9
:10512C0009E0FEF763FB0200FB68D31A6A4A93425C
:10513C0001D90323CAE0674B1B68072213403A6866
:10514C009A42EED17B681B680222134015D07B6813
:10515C001B680422134006D0604B9A685F4BE02119
:10516C00C9010A439A605D4B9B685D4A1340190064
:10517C007B689A68594B0A439A607B681B680122CA
:10518C00134057D07B685B68012B07D1534B1A68CF
:10519C0080239B0213402BD1012397E07B685B6833
:1051AC00022B07D14D4B1A6880239B0413401FD14F
:1051BC0001238BE07B685B68002B07D1474B1A6897
:1051CC008023DB00134013D101237FE07B685B68F5
:1051DC00032B06D1414B1B6E0222134008D1012335
:1051EC0074E03E4BDB6D0222134001D101236DE0D4
:1051FC003A4B9B680722934319007B685A68374BDC
:10520C000A439A60FEF7F2FA0300FB6009E0FEF72E
:10521C00EDFA0200FB68D31A2F4A934201D90323FB
:10522C0054E02E4B9B6838221A407B685B68DB008D
:10523C009A42ECD1274B1B68072213403A689A42DA
:10524C001ED2244B1B68072293431900214B3A684A
:10525C000A431A60FEF7CAFA0300FB6009E0FEF786
:10526C00C5FA0200FB68D31A1B4A934201D90323E7
:10527C002CE0184B1B68072213403A689A42EED177
:10528C007B681B680422134009D0144B9B68154A99
:10529C00134019007B68DA68104B0A439A6000F0DF
:1052AC0029F801000D4B9B681B0A0F221A400E4B6C
:1052BC009200D3581F2213400A00DA400B4B1A609D
:1052CC000B4B1B681800FEF735FA03001800BD469F
:1052DC0004B080BD00200240881300000010024082
:1052EC00FFF0FFFFFF8FFFFF30A300082C00002012
:1052FC003000002080B586B000AF3C4B9B68382254
:10530C0013400FD1394B1B68DB0A072213400122D3
:10531C009A4013003B6039683548FAF709FF0300DF
:10532C003B615DE0314B9B6838221340082B02D166
:10533C00304B3B6154E02D4B9B6838221340102BB3
:10534C0038D12A4BDB6803221340FB60274BDB6808
:10535C001B09072213400133BB60FB68032B0DD1E3
:10536C00B9682448FAF7E4FE030019001F4BDB6808
:10537C001B0A7F2213404B437B610DE0B9681C482C
:10538C00FAF7D6FE03001900184BDB681B0A7F22C4
:10539C0013404B437B61C046144BDB685B0F072209
:1053AC00134001337B6079687869FAF7C1FE03001A
:1053BC003B6115E00D4B9B6838221340202B03D129
:1053CC0080231B023B610BE0084B9B683822134087
:1053DC00182B03D1FA23DB013B6101E000233B6175
:1053EC003B691800BD4606B080BDC04600100240A7
:1053FC000024F40000127A0080B500AF024B1B6849
:10540C001800BD4680BDC0462C000020B0B500AFD2
:10541C00FFF7F2FF0400FFF73FFB03001A0B054BED
:10542C009200D3581F221340DC4023001800BD46C5
:10543C00B0BDC04670A3000880B582B000AF7860E4
:10544C007B68002B01D101234AE07B683D229B5CE9
:10545C00DBB2002B07D17B683C22002199547B687E
:10546C001800FDF771FF7B683D22022199547B687F
:10547C001A687B6804331900100000F021FD7B686A
:10548C004822012199547B683E22012199547B6862
:10549C003F22012199547B684022012199547B6859
:1054AC004122012199547B684222012199547B6845
:1054BC004322012199547B684422012199547B6831
:1054CC004522012199547B684622012199547B681D
:1054DC004722012199547B683D22012199540023D4
:1054EC001800BD4602B080BD80B582B000AF7860B8
:1054FC007B68002B01D101234AE07B683D229B5C39
:10550C00DBB2002B07D17B683C22002199547B68CD
:10551C00180000F041F87B683D22022199547B6809
:10552C001A687B6804331900100000F0C9FC7B6812
:10553C004822012199547B683E22012199547B68B1
:10554C003F22012199547B684022012199547B68A8
:10555C004122012199547B684222012199547B6894
:10556C004322012199547B684422012199547B6880
:10557C004522012199547B684622012199547B686C
:10558C004722012199547B683D2201219954002323
:10559C001800BD4602B080BD80B582B000AF786007
:1055AC00C046BD4602B080BD80B584B000AF786007
:1055BC0039603B68002B08D17B683E229B5CDBB2D8
:1055CC00013B5A1E9341DBB237E03B68042B08D1F8
:1055DC007B683F229B5CDBB2013B5A1E9341DBB2E2
:1055EC002BE03B68082B08D17B6840229B5CDBB22C
:1055FC00013B5A1E9341DBB21FE03B680C2B08D1D8
:10560C007B6841229B5CDBB2013B5A1E9341DBB2AF
:10561C0013E03B68102B08D17B6842229B5CDBB209
:10562C00013B5A1E9341DBB207E07B6843229B5C33
:10563C00DBB2013B5A1E9341DBB2002B01D001239C
:10564C0081E03B68002B04D17B683E2202219954F7
:10565C0023E03B68042B04D17B683F220221995440
:10566C001BE03B68082B04D17B6840220221995433
:10567C0013E03B680C2B04D17B6841220221995426
:10568C000BE03B68102B04D17B6842220221995419
:10569C0003E07B684322022199547B681B683968BC
:1056AC000122180000F0BAFF7B681B68284A93425D
:1056BC0009D07B681B68274A934204D07B681B681F
:1056CC00254A934201D1012300E00023002B08D08E
:1056DC007B681B685A6C7B681B68802109020A4333
:1056EC005A647B681B681A4A93420AD07B681A6812
:1056FC008023DB059A4204D07B681B68174A9342CF
:10570C0016D17B681B689B68154A1340FB60FB68CD
:10571C00062B16D0FA6880235B029A4211D07B6864
:10572C001B681A687B681B6801210A431A6008E031
:10573C007B681B681A687B681B6801210A431A6026
:10574C0000E0C04600231800BD4604B080BDC04632
:10575C00002C01400044014000480140000400407E
:10576C000700010080B582B000AF786039607B68BB
:10577C001B6839680022180000F050FF7B681B681A
:10578C00354A934209D07B681B68344A934204D053
:10579C007B681B68324A934201D1012300E000234D
:1057AC00002B13D07B681B681B6A2E4A13400DD14B
:1057BC007B681B681B6A2C4A134007D17B681B68EB
:1057CC005A6C7B681B6829490A405A647B681B68C1
:1057DC001B6A244A13400DD17B681B681B6A224A42
:1057EC00134007D17B681B681A687B681B68012112
:1057FC008A431A603B68002B04D17B683E2201214E
:10580C00995423E03B68042B04D17B683F2201218F
:10581C0099541BE03B68082B04D17B684022012182
:10582C00995413E03B680C2B04D17B684122012175
:10583C0099540BE03B68102B04D17B684222012168
:10584C00995403E07B6843220121995400231800EA
:10585C00BD4602B080BDC046002C01400044014052
:10586C00004801401111000044040000FF7FFFFFBD
:10587C0080B582B000AF78607B681B681B69022220
:10588C001340022B24D17B681B68DB680222134077
:10589C00022B1DD17B681B68032252421A617B6864
:1058AC0001221A777B681B689B690322134004D082
:1058BC007B68180000F0ECFA07E07B68180000F039
:1058CC00DFFA7B68180000F0EBFA7B6800221A778D
:1058DC007B681B681B6904221340042B25D17B6851
:1058EC001B68DB6804221340042B1ED17B681B68E9
:1058FC00052252421A617B6802221A777B681B6868
:10590C009A69C0239B00134004D07B68180000F0F8
:10591C00BFFA07E07B68180000F0B2FA7B68180049
:10592C0000F0BEFA7B6800221A777B681B681B6943
:10593C0008221340082B24D17B681B68DB680822E3
:10594C001340082B1DD17B681B68092252421A6137
:10595C007B6804221A777B681B68DB69032213407F
:10596C0004D07B68180000F093FA07E07B681800FD
:10597C0000F086FA7B68180000F092FA7B6800222F
:10598C001A777B681B681B6910221340102B25D1DA
:10599C007B681B68DB6810221340102B1ED17B68C0
:1059AC001B68112252421A617B6808221A777B68A5
:1059BC001B68DA69C0239B00134004D07B68180075
:1059CC0000F066FA07E07B68180000F059FA7B6873
:1059DC00180000F065FA7B6800221A777B681B6858
:1059EC001B6901221340012B0FD17B681B68DB68FC
:1059FC0001221340012B08D17B681B680222524202
:105A0C001A617B681800FDF719FC7B681B681B6921
:105A1C0080221340802B0FD17B681B68DB688022AF
:105A2C001340802B08D17B681B68812252421A617B
:105A3C007B68180000F086FE7B681B681A6980235F
:105A4C005B001A4080235B009A420ED17B681B6876
:105A5C00DB6880221340802B07D17B681B681C4AB3
:105A6C001A617B68180000F075FE7B681B681B6967
:105A7C0040221340402B0FD17B681B68DB6840220F
:105A8C001340402B08D17B681B68412252421A619B
:105A9C007B68180000F00CFA7B681B681B692022DD
:105AAC001340202B0FD17B681B68DB68202213402E
:105ABC00202B08D17B681B68212252421A617B681B
:105ACC00180000F037FEC046BD4602B080BDC0468F
