:020000040800F2
:10000000002000206D2F0008992D0008A12D000868
:1000100000000000000000000000000000000000E0
:10002000000000000000000000000000A92D0008F2
:100030000000000000000000B32D0008BD2D0008E6
:10004000BD2F0008BD2F0008BD2F0008BD2F0008E0
:10005000BD2F0008BD2F0008BD2F0008BD2F0008D0
:1000600000000000BD2F0008BD2F0008BD2F0008B4
:10007000BD2F0008BD2F0008BD2F0008BD2F0008B0
:10008000BD2F0008BD2F0008BD2F0008BD2F0008A0
:1000900000000000BD2F0008CD2D0008BD2F000876
:1000A000BD2F0008BD2F0008BD2F0008BD2F000880
:0C00B000BD2F0008BD2F0008000000005C
:1000BC0010B5064C2378002B07D1054B002B02D032
:1000CC00044800E000BF0123237010BDEC010020A8
:1000DC00000000005C890008044B10B5002B03D015
:1000EC000349044800E000BF10BDC04600000000FA
:1000FC00F00100205C8900080023C25C0133002A57
:10010C00FBD1581E7047000002B4714649084900E3
:10011C00095C49008E4402BC7047C04603B471466A
:10012C00490840004900095E49008E4403BC7047F1
:10013C00002243088B4274D303098B425FD3030A1A
:10014C008B4244D3030B8B4228D3030C8B420DD32D
:10015C00FF22090212BA030C8B4202D312120902BB
:10016C0065D0030B8B4219D300E0090AC30B8B42F9
:10017C0001D3CB03C01A5241830B8B4201D38B03A7
:10018C00C01A5241430B8B4201D34B03C01A52414C
:10019C00030B8B4201D30B03C01A5241C30A8B428F
:1001AC0001D3CB02C01A5241830A8B4201D38B027A
:1001BC00C01A5241430A8B4201D34B02C01A52411E
:1001CC00030A8B4201D30B02C01A5241CDD2C30990
:1001DC008B4201D3CB01C01A524183098B4201D30C
:1001EC008B01C01A524143098B4201D34B01C01AF7
:1001FC00524103098B4201D30B01C01A5241C3086F
:10020C008B4201D3CB00C01A524183088B4201D3DD
:10021C008B00C01A524143088B4201D34B00C01AC9
:10022C005241411A00D20146524110467047FFE735
:10023C0001B5002000F0F0F802BDC0460029F7D04F
:10024C0076E7704703460B437FD4002243088B426A
:10025C0074D303098B425FD3030A8B4244D3030B41
:10026C008B4228D3030C8B420DD3FF22090212BA06
:10027C00030C8B4202D31212090265D0030B8B4282
:10028C0019D300E0090AC30B8B4201D3CB03C01A6C
:10029C005241830B8B4201D38B03C01A5241430B47
:1002AC008B4201D34B03C01A5241030B8B4201D337
:1002BC000B03C01A5241C30A8B4201D3CB02C01AA2
:1002CC005241830A8B4201D38B02C01A5241430A1A
:1002DC008B4201D34B02C01A5241030A8B4201D309
:1002EC000B02C01A5241CDD2C3098B4201D3CB01B0
:1002FC00C01A524183098B4201D38B01C01A52415F
:10030C0043098B4201D34B01C01A524103098B4262
:10031C0001D30B01C01A5241C3088B4201D3CB004D
:10032C00C01A524183088B4201D38B00C01A524130
:10033C0043088B4201D34B00C01A5241411A00D2E0
:10034C0001465241104670475DE0CA0F00D0494249
:10035C00031000D34042534000229C4603098B42B9
:10036C002DD3030A8B4212D3FC22890112BA030A41
:10037C008B420CD3890192118B4208D389019211C3
:10038C008B4204D389013AD0921100E08909C30948
:10039C008B4201D3CB01C01A524183098B4201D34A
:1003AC008B01C01A524143098B4201D34B01C01A35
:1003BC00524103098B4201D30B01C01A5241C308AD
:1003CC008B4201D3CB00C01A524183088B4201D31C
:1003DC008B00C01A5241D9D243088B4201D34B0037
:1003EC00C01A5241411A00D20146634652415B1079
:1003FC00104601D34042002B00D54942704763465A
:10040C005B1000D3404201B5002000F005F802BD9E
:10041C000029F8D016E770477047C0468446100094
:10042C0062468C461900634600E0C0461FB501F0D9
:10043C0055F8002801D40021C8421FBD10B500F0AA
:10044C0095FF4042013010BD10B501F047F800286F
:10045C0001DB002010BD012010BDC04610B501F01D
:10046C003DF8002801DD002010BD012010BDC04664
:10047C0010B500F0BFFF002801DC002010BD0120EA
:10048C0010BDC04610B500F0B5FF002801DA002001
:10049C0010BD012010BDC046002B11D1002A0FD178
:1004AC00002900D1002802D00021C943080007B45C
:1004BC00024802A14018029003BDC0465DFFFFFF39
:1004CC0003B4684601B5029800F006F8019B9E46FD
:1004DC0002B00CBC7047C046F0B557464E46454678
:1004EC00DE46E0B504000D009246994683B08B427F
:1004FC0030D82DD04946504601F094FF2900060013
:10050C00200001F08FFF331A9846203B34D49B46D1
:10051C0053465A46934042461F00534693401E0092
:10052C00AF423BD8AF4200D179E05B46A41BBD4142
:10053C00002B00DA76E000220023009201930123C5
:10054C005A4693400193012342469340009329E07D
:10055C008242CFD900220023009201930C9B002BE6
:10056C0001D01C605D600098019903B0F0BCBB46E3
:10057C00B246A946A046F0BD42469B4620239B1A94
:10058C005246DA40414613004A468A40170042461A
:10059C001F43534693401E00AF42C3D90022002391
:1005AC00009201934346002BD8D0FB0772081A43E4
:1005BC0046467B080EE0AB4201D1A2420CD8A41AED
:1005CC009D41012024196D410021013E24184D410B
:1005DC00002E06D0AB42EED9013E24196D41002EFF
:1005EC00F8D1009801995B4600196941002B24DB76
:1005FC002B005A464446D3402A00E2401C005B467E
:10060C001500002B2ADB26009E40330026004746AF
:10061C00BE403200801A9941009001919EE7A3429E
:10062C00BCD882E74246202300219B1A002200916D
:10063C0001920122DA40019285E7424620239B1A5F
:10064C002A0046469A402300F340444613432A00AE
:10065C00E2401C005B461500002BD4DA42462F000A
:10066C002023260097409B1ADE403B003343CDE706
:10067C00F0B557464E464546DE46E0B583B0009091
:10068C0001910C034F00CE0F610A009C1D03640FF7
:10069C000C43009900920193C80059004B0D9946E8
:1006AC00009A019B6D0AD90F530F2B439A46009B5E
:1006BC007F0DDA0094464A46B046BA1A8E4200D1F3
:1006CC00B0E0002A00DC78E04946002900D1E9E0DE
:1006DC00C9498F4200D195E10125382A16DC8021C9
:1006EC00534609040B439A461F2A00DDE7E12021FB
:1006FC0055468B1A61469D40D1400D436146994049
:10070C004B1E99415346D3400D43E41A451BA84256
:10071C0080414042241A230200D40FE16402640A8F
:10072C00002C00D139E1200001F05EFE0300083BF3
:10073C0020212800CA1AD0409C4002009D40224330
:10074C009F4200DD73E1D81B0130091A2C008D404B
:10075C00C4406B1E9D411300C2408B4025430027B3
:10076C0014001D436B0709D00F232B40042B05D01D
:10077C002B1DAB42AD416D4264191D00230200D408
:10078C002DE19D4A0137974200D1D3E046469B4963
:10079C00ED0821404A072A437C054D022D0B640DC0
:1007AC0024052C43F60734431000210003B0F0BCA1
:1007BC00BB46B246A946A046F0BD002A00D184E053
:1007CC004A46D21B002F00D06DE12500054300D115
:1007DC0027E1561E012A00D13BE2874DAA4200D1E7
:1007EC006AE20125382E12DC32001F2A00DDF8E106
:1007FC0020262500B61A07005346B040D440B54019
:10080C00D740461EB0411B1B9A463D4305436246EA
:10081C00551BAC459241534652420E004F468846FA
:10082C009C1A78E7002A00DC8EE04946002975D135
:10083C0061465346194300D1F6E0511E012A00D1FE
:10084C0091E16D4DAA4200D1DCE00125382914DC80
:10085C000A001F2A00DDA2E120215346891A8B4091
:10086C001D006346D3401D4363468B4019004B1E4D
:10087C0099415346D3400D43E4182D1885428041CD
:10088C0040422418230259D55B4B01379F4251D06B
:10089C0001215A4B6A081C4029400A43E5071543BD
:1008AC0064085FE761465346194300D1BCE0511E12
:1008BC00012A00D164E1504DAA4200D16AE1012520
:1008CC00382900DD22E70A000EE74D4A7D1C15424F
:1008DC0000D0D0E025006246534605431A43002F52
:1008EC0000D037E1002D00D1A8E1002A00D16AE147
:1008FC006346C51A5346E21AA8429B415B42D31A7F
:10090C001A0200D403E263461D1AAC4592415346C9
:10091C0052421C1B0E008846A41A23E736498F420C
:10092C0070D00125382AA8DC8021534609040B43DA
:10093C009A468EE73C000025002231E707232B4026
:10094C00002B00D010E793E0002A74D04A46D21B4B
:10095C00002F00D1C7E02849894500D185E1012548
:10096C00382A12DC802109040C431F2A00DDABE17C
:10097C0020212500891A070088408D40D740411E50
:10098C008841D4403D430543A244654465459241AA
:10099C005242524414004F4674E7280001F024FDE3
:1009AC00030018331F2B00DCC2E62A0008388240F3
:1009BC009F4200DDA9E0DB1B581C1F2800DCACE1CA
:1009CC0015001F3BDD40202805D040231B1A9A4000
:1009DC00531E9A411543072300272B40B0E7ED081F
:1009EC00054B62072A43E4089F420FD02403250BD2
:1009FC007C05640DD4E6C046FF070000FFFF7FFFB7
:100A0C00FE070000C00862070243E40813002343FA
:100A1C0000D186E180252D0325432D03C34C2D0BDE
:100A2C00BEE6604654460E001700C508D8E7C04C19
:100A3C00FF1A144096E6BF4A791C11426BD1220072
:100A4C000243002F00D0DBE0002A00D12DE16246EA
:100A5C0053461A4300D1B6E06346C518854280411F
:100A6C00544440422418230202D50F00B04B1C40C2
:100A7C003A002800D8E76246851AA84292415346AC
:100A8C0052429146E31A1A004B46D21A1300914671
:100A9C001A0254D44A464C462A4300D040E600265B
:100AAC00002400257CE6A14DA94500D190E001254C
:100ABC00382A00DDABE680252D042C4395E6110089
:100ACC0055462039CD40A946202A06D04021534610
:100ADC008A1A934062461A43944665466B1E9D41A2
:100AEC004B461D4312E62100014300D1C4E0511EC8
:100AFC00012A00D1FBE08D4DAA4200D1B5E00125C1
:100B0C00382900DD41E70A002FE7894CFF1A144011
:100B1C006207E4086AE7854A914200D1E3E0634644
:100B2C00C218824280412300404253441B18DD0707
:100B3C005C080723520815430F002B4000E763465F
:100B4C001D1AAC459241534652421C1B0E0088465E
:100B5C00A41AE5E5002D00D091E0002A38D18024BC
:100B6C000026240356E76346C51885428041544449
:100B7C00404224180127230200D4DFE6022787E62F
:100B8C006346C51AA842804153464042E41A0127E5
:100B9C00241AC0E56207C0080243E40836E71100D6
:100BAC0053462039CB409946202A06D04021534643
:100BBC008A1A934062461A43944665466B1E9D41C1
:100BCC004B461D4359E66207C0080243E4080DE793
:100BDC0053465A076346D80853460E000243DC08B6
:100BEC0014E715002600203DEE40202A03D04025B6
:100BFC00AA1A94402043421E90410500354306E654
:100C0C00002A7CD062465346C0081A4300D1FAE64B
:100C1C00620710438022E4081203144208D0D9085A
:100C2C00114205D16346D80853460C005B071843A4
:100C3C00420FC000C00852070243E7E6002A00D169
:100C4C002DE76346D80853465A070E000243DC08CA
:100C5C00CCE663461D1AAC459241534652421C1BCE
:100C6C000E008846A41A013755E56346D908534649
:100C7C005A070A43DC08C9E660465446D4E6C00865
:100C8C00002A00D1BFE6620710438022E408120359
:100C9C001442CDD0DD081542CAD16346D80853465C
:100CAC005B070E002C001843C2E76346D908534675
:100CBC005A070A43DC0899E66346D80853465A0794
:100CCC000E000243DC08A1E6110027002039CF40BA
:100CDC00202A03D040218A1A94402043421E90417E
:100CEC0005003D4351E60C000025002258E5604408
:100CFC0060459241544452420500A4183AE75346C9
:100D0C005A076346D90853460A43DC087EE61A00A4
:100D1C001C002A4300D0ABE6C1E620210025091AAD
:100D2C0019E500220025014C3AE5C046FF070000FA
:100D3C00FFFF7FFFFE070000F0B5DE464546574635
:100D4C004E46E0B587B0009201930B031B0B9B46FC
:100D5C00CA0F4B00040080465B0D029200D16AE181
:100D6C00D44A934200D18CE15946420FC9000A4340
:100D7C00802109041143C2009046CF4A894692460D
:100D8C009A44002300240393009E019F3B031B0BFA
:100D9C009B467B0030005B0DFD0F002B00D128E142
:100DAC00C44A934200D177E15946720FC9000A43F5
:100DBC008021090411438B46BF49F2008C465146F1
:100DCC006344CB1A9A460023029E6E400F2C27D800
:100DDC00BA49A40009598F46CB464246029E039B52
:100DEC00022B16D0032B00D1A6E2012B00D0DFE0A2
:100DFC0000220023002490461B052343F6073343AF
:100E0C004046190007B0F0BCBB46B246A946A04606
:100E1C00F0BD002200249046A64BEDE72E00DFE744
:100E2C00CB4500D2D4E100D1CFE101235B429C46FB
:100E3C00444648460027E2445B46150E1B021D4300
:100E4C00190C2B04120200951D0C9146029103956E
:100E5C00FFF7F4F902006A430B04210C8046194396
:100E6C008A4209D9009D0123AC465B4261449C46F1
:100E7C00E0448D4200D8FBE1881A0299FFF7DEF9B5
:100E8C00039A240442430904240C03000C43A24299
:100E9C0006D90099013B8C466444A14200D8E1E19B
:100EAC00A01A424612041A4393464B4659461B0C51
:100EBC001D0004930B0449460904090C0C001B0C7F
:100ECC005C43120C6B43884651436A43250CAC4679
:100EDC005B186344994203D9802149028C466244D1
:100EEC00190C24041B04240C8A181C19904202D3DC
:100EFC0016D1A74214D25B46009D013B4F4405938B
:100F0C004F459B41AC465B426344C018854200D3BD
:100F1C00A1E1824200D9F6E100D1F1E1059B9B46AB
:100F2C003C1BA742BF41009D801A7F42C01B8542DB
:100F3C0000D1D0E10299FFF781F9039A0B044243E7
:100F4C00210C070019438A4200D978E1881A0299CA
:100F5C00FFF774F9039A240442430904240C030098
:100F6C000C43A24200D95DE14146A41A3A041A434B
:100F7C00049D13041B0C594347466B439C46100CB1
:100F8C0047430B0CBC44634468439F4203D9802500
:100F9C006D02AC4660441F0C09041B04090C3F187D
:100FAC005B18BC4200D202E100D1FDE001231A43E0
:100FBC00434B5344002B00DCAEE0510700D098E1CA
:100FCC005946C90106D559463E4B194080238B46DC
:100FDC00DB0053443C498B4200DD1AE75946D208EA
:100FEC00490711435A465B0554028846240B5B0D96
:100FFC0002E75A46009B1A4300D17EE05B46002B69
:10100C0000D100E1584601F0EFF9020003000B3A61
:10101C001D27009EBA1A19005846D6400839884038
:10102C00320002439346009A8A40284953448A4628
:10103C009A440023C8E65B460343994656D05B4668
:10104C00002B00D1CDE0584601F0CEF90B235B42CA
:10105C009C460200844466461D239B1B26001100FF
:10106C005846DE4008398840330003439946230034
:10107C008B409846164B00249B1A9A4600230393E8
:10108C0082E65A46024391462AD100229A4602230E
:10109C0090460824039377E65A46009B1A430D4B5F
:1010AC009C46E244002A17D102231C4300239B4692
:1010BC00023389E6FF07000001FCFFFF7889000876
:1010CC00FF030000FFFFFFFEFE070000F30300001C
:1010DC000DFCFFFF01F8FFFF032332001C4373E6F6
:1010EC009A460323D9460C2403934DE600239846D5
:1010FC009A4601330424039346E601231C43002340
:10110C009B46013360E60023802498460026924BD0
:10111C00240371E6012252420121C91A382900DD4B
:10112C0066E61F2900DCABE01F204042C31A58467C
:10113C00D8400300202904D058468849514488409F
:10114C000243511E8A411A430723190000241140FF
:10115C0013420CD00F231340042B00D1F9E0111DC6
:10116C0091429B410A005B4259075B021C0BD2085F
:10117C000A43904600233FE680244B462403234237
:10118C0009D05B46234206D11C4324032E00904613
:10119C00714B240B30E680244B4624031C43240360
:1011AC00029E6D4B240B27E6002B00D100E7009824
:1011BC00511E84466444844200D284E0BC4200D276
:1011CC00AEE000D1C1E00A00F0E6424500D92CE6C1
:1011DC004B46DC07580843465B081C434346DF0775
:1011EC002AE601F001F915239C468444020063466B
:1011FC0020321C2B00DC2EE7230008388340994654
:10120C000023984636E701F0EFF802000300153290
:10121C0020331C2A00DCFBE60099083881400022B0
:10122C008B4602E70099013B8C466444A14200D9ED
:10123C009AE6A24200D897E6831E644494E6AC4634
:10124C006144013F8D4200D980E68A4200D87DE698
:10125C00871E61447AE6854200D05FE6B94500D925
:10126C005CE656E6A24200D81AE6831E644417E6F2
:10127C008A4200D800E6AC46831E98466144FBE5E2
:10128C0037481400504482405B4617008340CC40E2
:10129C007A1E974123433B431A005B46CB405107D0
:1012AC0009D00F211140042905D0111D9142924102
:1012BC0052429B180A00190200D455E70022012360
:1012CC000024904698E50A00BC4200D06EE64B45DF
:1012DC0000D06BE66CE6234B234A5344924500DA6C
:1012EC0018E7012149420A1D8A42894149428B442F
:1012FC0066E60F211140042900D161E61100F2E7E6
:10130C00BC4200D80AE602235B429C4600994F443B
:10131C004F459B41E3448C465B426344C018FFE558
:10132C004946009D480048458941AC4649426144C4
:10133C008146023A6418C7E780245B4624031C43A9
:10134C0024039046044B240B56E59945E8D30A0038
:10135C00BDE7002308E7C046FF0700003E0400007D
:10136C001E040000FF03000002FCFFFFF0B557460F
:10137C00DE464E464546E0B50D000400E80F8346B8
:10138C000903D80F090B824619488C461F036900C4
:10139C005E00490D3F0B760D814218D086420FD06E
:1013AC000120B1420DD1BC450BD1944209D1D3459A
:1013BC001CD0002905D160462043431E984100E013
:1013CC000120F0BCBB46B246A946A046F0BD0120A8
:1013DC008E42F6D1614639430F0017432743F0D1B3
:1013EC005B465246981A431E9841EAE70020E8E70C
:1013FC00FF070000F0B557464E464546DE46E0B5C1
:10140C000D000F03390B83B0040080460191580086
:10141C00E90F314F400D8C466E0019038246914600
:10142C00760D090BD80FBE421FD0BA450FD0002E37
:10143C002FD15546019E3443002D27D10A433AD073
:10144C00002C45D100281AD10120404217E011434D
:10145C003BD1002E02D1019F2743F3D0844509D103
:10146C006346002BF0D0604609E0019F27432CD146
:10147C00B24524D063460220013B1840013803B02A
:10148C00F0BCBB46B246A946A046F0BD002CD9D054
:10149C00E4E75446002CEDD08445EBD15645E9DC0D
:1014AC00DEDB019B8B42E5D8DAD1C845E2D80020BF
:1014BC00C845E4D2D4E70020002CE0D0DAE7114391
:1014CC0003D18445D6D10020D9E702204042D6E78B
:1014DC008445E6D0CEE7C046FF070000F0B557467E
:1014EC004E464546DE46E0B50D000F03040080462F
:1014FC00E80F390B844683B05800304F400D0191F2
:10150C001E03690082469146490D360BD80FB9422D
:10151C0020D0BA450FD000292BD101990C4351464C
:10152C00002937D1324338D0002C44D1002819D1AE
:10153C000120404216E0164313D1002902D1019F2D
:10154C002743F3D0844520D063460220013B18404A
:10155C00013807E0019F274303D18A45F4D1164394
:10156C001FD0022003B0F0BCBB46B246A946A04631
:10157C00F0BD5446002CE7D08445E5D15145E3DC61
:10158C0003DB019BB342DFD80FD06346002BCFD0D7
:10159C006046E7E7002CC9D0D4E70020002CE1D04E
:1015AC00D2E78445D0D10020DCE7C845CCD8002058
:1015BC00C845D7D2E9E78445E3D0C5E7FF0700006B
:1015CC00F0B55746DE464E464546E0B51F000B03C8
:1015DC001B0B16009A46CA0F4B000400934687B0AB
:1015EC005B0D00D1D5E0BB4A934200D1F8E05146E7
:1015FC00420FC9000A43802109041143C2009146DD
:10160C00B54A8A469D180023984602933C037B00FA
:10161C00FA0F3000240B5B0D009200D196E0AD4A1E
:10162C00934231D0720FE4002243802424041443EB
:10163C00A94AF000944663445B195A1C0192424635
:10164C0000260A2A42DC5A4600994A4093464246F2
:10165C00022A32DC013A012A00D949E1022E00D1DA
:10166C00CAE0012E3DD100230024002210005A466E
:10167C001B052343D2071343190007B0F0BCBB462C
:10168C00B246A946A046F0BD924B2643EB18002E5D
:10169C0000D1BBE00322414611435A4688460099CB
:1016AC004A40802109018C46290061440191414640
:1016BC000A2900DD33E29346032642460127974070
:1016CC00A6213A00C9000A400F4231D0029E022ED8
:1016DC0000D135E2032E00D1D2E154464846012E0A
:1016EC00C1D0019A7D4B94466344002B00DCC0E0D2
:1016FC00420709D00F220240042A05D0021D824263
:10170C008041404224181000E20106D5744B019A26
:10171C001C4080239446DB006344724A93426BDC8A
:10172C006207C00864025B050243240B5B0D9DE756
:10173C00902189000F4263D188223A4200D1D7E030
:10174C00009BA2469B4681460296BFE7230033438B
:10175C0000D17FE0002C00D1ADE1200000F044FE70
:10176C00020003000B3A1D201900821A30000839C0
:10177C00D0408C400443300088405B4AEB1A9446BE
:10178C0063445A1C0192424600260A2A00DC5AE79E
:10179C009CE753460343994654D05346002B00D143
:1017AC0077E1504600F020FE0B235B429C46020082
:1017BC00844411005046083988401D2380466046F9
:1017CC001B1A2000D8400300404603439A462300CE
:1017DC008B4099460023444D9846AD1A029315E769
:1017EC0052460243914626D100221D000223924606
:1017FC0008329046029309E700240022354B35E766
:10180C00002380249B462403324B2FE702224146BF
:10181C0011438022120194462A00624488460192A8
:10182C000A2900DD52E75A460020009904004A407C
:10183C00934602260BE70C221D000323814690469B
:10184C000293E3E600239A4604339846033B0025B3
:10185C000293DBE6424601331A432B0090465A1C96
:10186C00019242460024002001260A2A00DCEAE606
:10187C002CE70122D21A382A00DDF4E61F2A00DCFC
:10188C002AE11F214942CB1A2100D9400B00202A02
:10189C0005D0164A019D94466544AC402043421E37
:1018AC0090411843072319000024014003420CD037
:1018BC000F230340042B00D140E1031D8342A441BC
:1018CC001800644261076402240BC20800230A4317
:1018DC00CCE6C046FF07000001FCFFFFFF03000041
:1018EC00FFFFFFFEFE0700000DFCFFFF3E040000A3
:1018FC0049464A460904090C0D00160C020C00045A
:10190C00000C4543AC4605007543A84615000F0076
:10191C007543009202952A00009D6F4365462D0C7D
:10192C00A94647444F44B84505D9150080225202B8
:10193C009046454402953D0C039565462D043F04A5
:10194C002D0CAC463D0065440495250C2404240C58
:10195C00AC4625007543A84665460F0069434144D3
:10196C0089466743390C49446E43884503D9802224
:10197C005202904646440D0CA84635004544059548
:10198C00039D3F04A8463F0C0904C91988444546E9
:10199C00039555462E04360C2F0C350045437843E1
:1019AC0081463800A8462D0CAA46009A5043724333
:1019BC004A445244914503D980256D02A9464844B6
:1019CC00150CA94645462D042D0CA84665467D43AD
:1019DC00120448449044A9463200654662436E4363
:1019EC007C43170C3619BF19BC4203D980246402FE
:1019FC00A446E144029C039EA446059D66448E4287
:101A0C008941AC4612043C04120CA21862444942AF
:101A1C0054184644A4464645A44182466442A04616
:101A2C00AA4292418C458941E244D04449425242F7
:101A3C000A43A045A44182458941644249420C4372
:101A4C0041463F0CD2191219CC0D0499700208436F
:101A5C00411E884141464A44F60D52023043490228
:101A6C0014430843D20135D50122430802401343E5
:101A7C00E0071843640834E6009BA2469B46814667
:101A8C008024534624031C4324034A462E4B240B28
:101A9C00ECE500F0A9FC15239C4684440200634647
:101AAC0020321C2B00DC84E60023994623000838E6
:101ABC0083409A468EE600F097FC02000300153234
:101ACC0020331C2A00DC4EE602003400083A0020C9
:101ADC00944052E6019304E61C4B21009C46030003
:101AEC00019DD3406544A94019430300AB40581EE7
:101AFC00834119430800D4404B0709D00F230B40F6
:101B0C00042B05D00B1D8B42804140422418180039
:101B1C00230200D4D6E6012300240022A6E50F29D7
:101B2C00AAD1802352461B031A42A9D01C42A7D12A
:101B3C001C43009B02009B46034B97E50024C1E627
:101B4C000024014B220091E5FF0700001E04000059
:101B5C00F0B54E464546DE465746E0B585B000909A
:101B6C0001910C034F00CE0F610A009CB046640F2C
:101B7C000C4300997F0DC80011001A001B039C46F2
:101B8C000091019251004B0D9946019B009DD90F7C
:101B9C0063466A0F5B0A1343EA0094469346C14AB4
:101BAC0003900293914500D1CDE0012569404D464B
:101BBC007D1BAA468E4200D180E0002D00DC35E36F
:101BCC004946002900D1DFE0974200D194E152460A
:101BDC000125382A19DC8022029B1204134302933C
:101BEC0052461F2A00DDE3E1534620226146029D46
:101BFC00D21A9540D9400D43614691400A00511EBE
:101C0C008A411543029ADA40A41A451BA842804126
:101C1C004042241A230200D43DE16402640A002CE1
:101C2C0000D147E1200000F0DFFB0300083B20213E
:101C3C002800CA1AD0409C4002009D4022439F427B
:101C4C0000DD77E1D81B0130091A2C008D40C4400F
:101C5C006B1E9D411300C2408B402543002714008E
:101C6C001D436B0709D00F232B40042B05D02B1DD4
:101C7C00AB42AD416D4264191D00230200D440E11A
:101C8C00884A0137974200D101E101264346864933
:101C9C00ED0821404A072A437C054D022D0B640DAB
:101CAC001E4024052C43F60734431000210005B0D8
:101CBC00F0BCBB46B246A946A046F0BD002D00DCE8
:101CCC00D0E24946002900D0D4E06146029B19437A
:101CDC0000D12BE1691E012D00D1D9E1954200D133
:101CEC000AE10125382917DC8A4653461F2B00DDF3
:101CFC00E7E12022D21A029B614693401D00534615
:101D0C00D940634693401A000D43511E8A415346F5
:101D1C001543029ADA40A4182D188542804140429E
:101D2C002418230200D4B6E05E4B01379F4200D149
:101D3C00ADE001215C4B6A081C4029400A43E507D1
:101D4C00154364088DE7594A029B92466246BA4491
:101D5C001A432CD08E422ED05246002A60D0002F2F
:101D6C0000D1DBE063460E00029CD80862070243F8
:101D7C00E4081300234300D154E280252D032543AE
:101D8C002D03484C2D0B8CE76146029B194300D167
:101D9C00CCE029000139012D00D188E1954200D118
:101DAC00AAE00125382900DD2FE78A4618E7012231
:101DBC0051408E42D0D15346002B00D1BEE0002FB3
:101DCC0000D038E1CA462200024300D1E2E153467A
:101DDC00591E012B00D10DE2324A924500D1D2E1BD
:101DEC000127382913DC1F2900DDEEE12022029B9C
:101DFC00521A250007009A46CC4090409540CF409F
:101E0C00A244421E904153462F43074302933D0088
:101E1C00654465459241029B52424F46D41880E777
:101E2C00234A7D1C154200D0AAE062462500029B85
:101E3C0005431A43002F00D0F5E0002D00D16BE1D3
:101E4C00002A00D152E16346C51A029BE21AA8424D
:101E5C009B415B42D31A1A0200D4D5E163461D1A8A
:101E6C00AC4592410126029B52421C1B8846A41A87
:101E7C000E40F6E697423FD052460125382A00DD47
:101E8C004AE78022029B1204134302932DE73C0085
:101E9C000025002205E707232B40002B00D0E2E6AB
:101EAC006BE0C046FF070000FFFF7FFF01F8FFFF5C
:101EBC00FE070000280000F097FA030018331F2BD0
:101ECC0000DCB4E62A00083882409F4200DDB9E00D
:101EDC00DB1B581C1F2800DCA0E115001F3BDD405C
:101EEC00202805D040231B1A9A40531E9A411543B3
:101EFC00072300272B40D0E7C00862070243E40801
:101F0C0037E7EA0863071A43D34BE4089F4200D132
:101F1C002FE72403250B7C05640DC2E6CA4622007C
:101F2C00024358D163460E00029C0393039B574611
:101F3C00DA08E7E7C94CFF1A144092E6C84D7A1C40
:101F4C002A4200D084E022000243002F00D0EFE0B0
:101F5C00002A00D1E5E0624602990A4300D1C5E0AF
:101F6C006346C5188C46854280416444404224181F
:101F7C00230202D5B94B01371C40BA460395D5E76D
:101F8C006246851AA842924152429146029BE31A3C
:101F9C001A004B46D21A130091461A026CD44A46C8
:101FAC004C462A4300D03AE600260024002578E669
:101FBC00029953460D00203AD540202B06D04022E2
:101FCC00D21A0B00934062461A4393465B465A1E44
:101FDC0093411D4319E653465A1E012B00D1C6E00E
:101FEC009D4EB24500D1BDE688460E000125382A2B
:101FFC0010DC1F2A7FDC20212500891A070088406D
:10200C008D40D740D440411E8841029B3D431B1B51
:10201C00054302936246551BAC459241029B5242CA
:10202C004F469C1AF6E5002D00D0B7E0002A00D1EF
:10203C00F0E001260E4063460298D90842070A4395
:10204C00C40896E6854CFF1A14406207E40860E762
:10205C0081498A4200D1C9E06346C118814280415E
:10206C00029B4042E3181B18DD075C080723490854
:10207C000D4317002B4010E763461D1AAC459241E7
:10208C000126029B52421C1B8846A41A0E40C6E530
:10209C006346C518029B854280419C46404264447D
:1020AC0024180127230200D4F5E6022741E66346F3
:1020BC00C51AA8428041029B4042E41A0127241A07
:1020CC00A8E5029D52462B00203AD34019005346F6
:1020DC00202B06D04022D21A2B00934062461A4382
:1020EC0093465D466B1E9D410D4315E66207C00885
:1020FC000243E4080DE7110027002039CF40202AC5
:10210C0005D040218A1A9440250005430395039D70
:10211C006A1E95413D437DE7002A00D144E7012624
:10212C000E406346D908029B5A070A43DC08F0E6C6
:10213C00002A28D06246029FC0083A4300D1DCE650
:10214C00620710438022E4081203144209D0FD08F0
:10215C00154206D1634601262C00D8087B0718438C
:10216C000E40420FC000C0085207024301E663460E
:10217C001D1AAC459241029B52421C1B0E00884614
:10218C000127A41A46E56346D908029B5A070A435D
:10219C00DC08EEE56346029C0393C7E6C008002A00
:1021AC0000D1AAE6620710438022E408120314420D
:1021BC00D7D0029FFD081542D3D163460126D8081B
:1021CC007B072C0018430E40CBE70A002700203A6F
:1021DC00D740202905D04022521A944025000543AF
:1021EC000395039D6A1E95412F4310E614000025AC
:1021FC00002256E5029B60449946604592414C444E
:10220C0052420500A4184CE71A001C002A4300D0C7
:10221C00B3E6C9E6802400262403AEE52021002580
:10222C00091A17E5002200250B4C3AE5002D00D1C8
:10223C00F6E54B46DA1B9246002F00D16FE6382AA2
:10224C0005DC80263604344388460E00D1E68846E9
:10225C000E000125DEE6C046FF070000FFFF7FFFF2
:10226C00FE070000002D00D168E64B46D91B002F5D
:10227C0001D18A46A7E50127382900DDC7E5802270
:10228C0012041443AFE5C046F0B5C6461E03360B28
:10229C00B0460D4E0C034D005F0000B5240B6D0DC8
:1022AC007F0DB5420BD0084900208F4204D1464621
:1022BC0016433000431E984180BCB846F0BD044321
:1022CC000120002CF8D1EEE7FF0700000B00020004
:1022DC0070B5164D0C0382B049000020009201939A
:1022EC00240B490DDE0FA94204DD1148814203DDA8
:1022FC00104BF01802B070BD8020400320430E4CF0
:10230C00641A1F2C08DD0D4B5B1AD8400300584291
:10231C00002EEFD11800EDE7094B009A9C46030004
:10232C0061448B40E2401343F1E7C046FE030000DA
:10233C001D040000FFFFFF7F3304000013040000A6
:10234C00EDFBFFFF70B5002816D0C317C5185D4014
:10235C00C40F280000F048F8104B1B1A5B055B0DEE
:10236C000A2814DC02002E00153296400B22121A99
:10237C00D5402D032D0B03E000240023002500265F
:10238C001B052B43E40723433000190070BD0B38A9
:10239C0085402D0300262D0BF2E7C0461E040000DD
:1023AC0010B5041E10D000F01FF80E4B1B1A5B0565
:1023BC005B0D0A280FDC0B222100121AD1401530BC
:1023CC000A038440120B01E0002300221B05134377
:1023DC002000190010BD22000B388240120300248B
:1023EC00120BF3E71E0400001C2101231B0498426E
:1023FC0001D3000C10391B0A984201D3000A08398A
:10240C001B09984201D30009043902A2105C401840
:10241C007047C046040302020101010100000000E4
:10242C000000000010B5002903D1FFF7DDFF2030BC
:10243C0002E00800FFF7D8FF10BDC04680B500AF22
:10244C0000F0B8FD00F018F800F094F900F072F804
:10245C0000F05CF900F030F900F0ACF8054B1B68AB
:10246C00FA2252005A6300F04DFA00F001FAC0460D
:10247C00F4E7C0466C02002090B593B000AF102476
:10248C003B19180038231A00002104F097FA3B007E
:10249C00180010231A00002104F090FA80239B00EE
:1024AC00180001F0DBF93B1902221A603B1980225B
:1024BC005200DA6021007B1800221A617B1840223E
:1024CC005A617B180222DA617B1802221A627B188D
:1024DC0000225A627B1808229A627B188022920290
:1024EC00DA627B18802292041A637B188022920590
:1024FC005A637B18180001F0FDF9031E01D000F09F
:10250C000AFB3B0007221A603B0002225A603B0088
:10251C0000229A603B000022DA603B000221180086
:10252C0001F002FD031E01D000F0F5FAC046BD46D5
:10253C0013B090BD80B500AF1B4B1C4A1A601A4BF0
:10254C001B4A5A60184B00229A60174B0122DA6022
:10255C00154B00221A61144B00225A61124B0022B7
:10256C009A61114B0022DA610F4B00221A620E4B5A
:10257C00180001F045F8031E01D000F0CCFA0A4B0C
:10258C000021180001F0D2F8031E01D000F0C3FAAC
:10259C00054B0021180001F015F9031E01D000F0C5
:1025AC00BAFAC046BD4680BD180200200058004053
:1025BC00BC7D701080B58EB000AF2823FB181800BE
:1025CC0010231A00002104F0F9F91C23FB18180041
:1025DC000C231A00002104F0F1F93B0018001C2315
:1025EC001A00002104F0EAF92F4B304A1A602E4BE6
:1025FC002F4A5A602C4B00229A602B4B2D4ADA60E2
:10260C00294B00221A61284B00229A61264B180094
:10261C0001F034FE031E01D000F07DFA28217B1856
:10262C00802252011A607A181F4B1100180002F018
:10263C0073FA031E01D000F06EFA1B4B180001F068
:10264C0075FE031E01D000F066FA1C217B180022D7
:10265C001A607B1800229A607A18134B110018002C
:10266C0002F022FF031E01D000F055FA3B0060225D
:10267C001A603B0000225A603B0000229A603B002B
:10268C0000221A613900084B0022180002F044F9AC
:10269C00031E01D000F03FFA034B180000F0EEFAD5
:1026AC00C046BD460EB080BD6C0200200004004048
:1026BC009F0F0000E703000080B500AF0F4B104ADE
:1026CC001A600E4B0F4A5A600C4B00229A600B4B4F
:1026DC000D4ADA60094B00221A61084B00225A613C
:1026EC00064B00229A61054B180001F0C7FD031E32
:1026FC0001D000F010FAC046BD4680BDB8020020E3
:10270C00004801403F1F00000F27000080B500AFBC
:10271C00164B174A1A60154BE12252025A60134BA2
:10272C0000229A60114B0022DA60104B00221A61D1
:10273C000E4B0C225A610D4B00229A610B4B00225E
:10274C00DA610A4B00221A62084B00225A62074BCC
:10275C0000229A62054B180002F026FF031E01D0DE
:10276C0000F0D9F9C046BD4680BDC0460403002028
:10277C000044004090B589B000AF0C243B19180000
:10278C0014231A00002104F019F9364B5A6B354BFF
:10279C0004210A435A63334B5B6B04221340BB6026
:1027AC00BB68304B5A6B2F4B01210A435A632D4B9C
:1027BC005B6B012213407B607B682A4B5A6B294B65
:1027CC0002210A435A63274B5B6B022213403B6086
:1027DC003B682549A023DB050022180000F0F3FE1E
:1027EC00224B00220C21180000F0EDFE3B191E4A72
:1027FC001A603B1901225A603B1900229A603B195E
:10280C000022DA603A19A023DB051100180000F051
:10281C0059FD21007B18E12252001A600C003B1973
:10282C0000225A603B1900229A603B190F4A19008A
:10283C00100000F047FD21007B180C221A607B1859
:10284C0001225A607B1800229A607B180022DA6001
:10285C007B18064A1900100000F034FDC046BD4636
:10286C0009B090BD00100240F38700000004005036
:10287C0080B582B002AF1F4B1B8818005023FF336A
:10288C001A000A2300930023372100F027F90300D4
:10289C009AB2194B1A80194B00221A6022E0164B7F
:1028AC001B881A00154B1B689A420BDD134B1A68D8
:1028BC00134B5200D15AA023DB050022180000F064
:1028CC0082FE0AE00D4B1A680D4B5200D15AA02320
:1028DC00DB050122180000F076FE084B1B685A1C21
:1028EC00064B1A60054B1B68092BD8DDC046C04649
:1028FC00BD4680BD080200200A0200200C02002008
:10290C000000002080B500AF684B8021180000F05B
:10291C003DFE03001A00664B1A70644B40211800F0
:10292C0000F034FE03001A00624B1A705F4B022158
:10293C00180000F02BFE03001A005F4B1A70802366
:10294C005B005A4A1900100000F020FE03001A0028
:10295C005A4B1A70564B1B78012B55D1554B1B7883
:10296C00002B51D1544B1B78002B18D1544B1B7896
:10297C00002B00D096E0514B1B78002B00D191E03E
:10298C00504B0021180001F031FD484B0122082169
:10299C00180000F018FE4A4B01221A7082E0484BD6
:1029AC001B78012B18D1454B1B78002B14D1454BB0
:1029BC000021180001F0F8FD3C4B00220821180002
:1029CC0000F001FE394B01220421180000F0FBFD40
:1029DC003B4B00221A7065E0394B1B78002B03D15E
:1029EC00354B1B78012B03D0344B1B78002B59D162
:1029FC00344B0021180001F0D7FD2C4B002208218C
:102A0C00180000F0E0FD4DE0294B1B78002B34D171
:102A1C00284B1B78012B30D1274B1B78002B27D14F
:102A2C00294B1B78012B23D1254B1B78002B0ED166
:102A3C00244B0021180001F0D9FC1C4B0122082169
:102A4C00180000F0C0FD1E4B01221A700DE01D4B4A
:102A5C000021180001F0A8FD144B002208211800D9
:102A6C0000F0B1FD164B00221A70052000F028FB77
:102A7C00114B1A78144B1A7015E0114B00221A7076
:102A8C00104B0021180001F08FFD084B002208218B
:102A9C00180000F098FD054B00220421180000F0EE
:102AAC0092FD00E0C046C046BD4680BD000400500B
:102ABC00100200201102002012020020130200203C
:102ACC00140200206C0200201400002080B582B09B
:102ADC0000AF7860C046BD4602B080BD80B584B002
:102AEC0000AFF860B9607A603B60FA68BB68D31AD3
:102AFC00B9693A688A1A5A4310007A68BB68D31AC3
:102B0C001900FDF715FB03001A003B68D3181800D9
:102B1C00BD4604B080BD80B500AF72B6C046C0469D
:102B2C00FDE7000080B582B000AF0F4B1A6C0E4B66
:102B3C0001210A431A640C4B1B6C012213407B606D
:102B4C007B68094BDA6B084B802149050A43DA6331
:102B5C00054BDA6B80235B0513403B603B68C0463A
:102B6C00BD4602B080BDC0460010024090B58BB08F
:102B7C0000AF786014243B19180014231A000021AC
:102B8C0003F01CFF7B681B681C4A934231D11C4B21
:102B9C005A6B1B4B01210A435A63194B5B6B012285
:102BAC0013403B613B693B19C02252011A60210062
:102BBC007B1812225A607B1800229A607B18002224
:102BCC00DA607B1806221A617A18A023DB05110043
:102BDC00180000F077FB0A4BDA6B094B8021C90314
:102BEC000A43DA63064BDA6B8023DB031340FB608A
:102BFC00FB68C046BD460BB090BDC04600580040B7
:102C0C000010024080B584B000AF78607B681B6810
:102C1C00174A93420CD1174BDA6B164B02210A431D
:102C2C00DA63144BDB6B02221340FB60FB681AE087
:102C3C007B681B68104A934215D10E4B1A6C0D4BD6
:102C4C008021C9020A431A640A4B1A6C8023DB02E6
:102C5C001340BB60BB6800220021162000F000FB73
:102C6C00162000F012FBC046BD4604B080BDC04625
:102C7C0000040040001002400048014090B589B0AB
:102C8C0000AF78600C243B19180014231A000021A3
:102C9C0003F094FE7B681B68144A934221D1144BB9
:102CAC005A6B134B02210A435A63114B5B6B022282
:102CBC001340BB60BB6821007B1810221A607B1884
:102CCC0002225A607B1800229A607B180022DA607C
:102CDC007B1801221A617B18064A1900100000F0BB
:102CEC00F1FAC046BD4609B090BDC0460004004094
:102CFC00001002400004005090B58BB000AF78601B
:102D0C0014243B19180014231A00002103F056FE5A
:102D1C007B681B681B4A934230D11B4BDA6B1A4BF6
:102D2C00802189020A43DA63174BDA6B80239B02FA
:102D3C0013403B613B69144B5A6B134B01210A4303
:102D4C005A63114B5B6B01221340FB60FB68210043
:102D5C007B180C221A607B1802225A607B18002206
:102D6C009A607B180022DA607B1801221A617A18AB
:102D7C00A023DB051100180000F0A4FAC046BD46E4
:102D8C000BB090BD004400400010024080B500AF75
:102D9C00C046FDE780B500AFC046FDE780B500AF8B
:102DAC00C046BD4680BD80B500AFC046BD4680BDA7
:102DBC0080B500AF00F068F9C046BD4680BD00008C
:102DCC0080B500AF034B180001F074FCC046BD4643
:102DDC0080BDC046B802002080B500AF01231800AA
:102DEC00BD4680BD80B582B000AF7860396003F01D
:102DFC003FFE030016221A6001235B421800BD46F9
:102E0C0002B080BD80B582B000AF786001235A4219
:102E1C007B6811001800FFF7E5FFC046FDE780B5A1
:102E2C0086B000AFF860B9607A6000237B610AE07D
:102E3C0000E000BF0100BB685A1CBA60CAB21A702D
:102E4C007B6901337B617A697B689A42F0DB7B6832
:102E5C001800BD4606B080BD80B586B000AFF860E6
:102E6C00B9607A6000237B6109E0BB685A1CBA60C8
:102E7C001B78180000E000BF7B6901337B617A6925
:102E8C007B689A42F1DB7B681800BD4606B080BDBA
:102E9C0080B582B000AF786001235B421800BD465C
:102EAC0002B080BD80B582B000AF786039603B68FD
:102EBC00802292015A6000231800BD4602B080BDEA
:102ECC0080B582B000AF786001231800BD4602B017
:102EDC0080BD80B584B000AFF860B9607A60002323
:102EEC001800BD4604B080BD80B586B000AF7860D8
:102EFC00144A154BD31A7B617B693B61134B1B68DE
:102F0C00002B02D1114B124A1A60104B1A687B68C5
:102F1C00D3183A699A4207D203F0AAFD03000C2297
:102F2C001A6001235B4209E0084B1B68FB60074BEE
:102F3C001A687B68D218054B1A60FB681800BD46EE
:102F4C0006B080BD00200020000400009803002083
:102F5C00F004002080B500AFC046BD4680BD000027
:102F6C000D488546FFF7F6FF0C480D490D4A002326
:102F7C0002E0D458C4500433C4188C42F9D30A4A22
:102F8C000A4C002301E013600432A242FBD303F08D
:102F9C0075FDFFF753FAFEE700200020000000202B
:102FAC00EC010020088E0008EC010020EC0400204D
:102FBC00FEE7000080B582B000AFFB1D00221A7046
:102FCC000B4B1A680A4B802149000A431A600320F4
:102FDC0000F010F8031E03D0FB1D01221A7001E053
:102FEC00FFF7A0FDFB1D1B781800BD4602B080BD8D
:102FFC000020024090B585B000AF78600F23FB181D
:10300C0000221A701D4B1B78002B2BD01C4B1C68FC
:10301C001A4B1B781900FA239800FDF789F8030066
:10302C0019002000FDF784F80300180000F03DF9AA
:10303C00031E12D17B68032B0AD8796801235B42EB
:10304C000022180000F00CF90E4B7A681A600DE0A3
:10305C000F23FB1801221A7008E00F23FB18012222
:10306C001A7003E00F23FB1801221A700F23FB18B0
:10307C001B781800BD4605B090BDC046200000204E
:10308C00180000201C00002080B500AF054B1B78F9
:10309C001A00054B1B68D218034B1A60C046BD467C
:1030AC0080BDC046200000209C03002080B500AFEE
:1030BC00024B1B681800BD4680BDC0469C03002017
:1030CC0080B584B000AF7860FFF7F0FF0300BB6001
:1030DC007B68FB60FB68013305D00A4B1B781A0038
:1030EC00FB689B18FB60C046FFF7E0FF0200BB6863
:1030FC00D31AFA689A42F7D8C046C046BD4604B007
:10310C0080BDC0462000002080B582B000AF020018
:10311C00FB1D1A70FB1D1B787F2B09D8FB1D1B7820
:10312C001A001F231A40044B012191400A001A6017
:10313C00C046BD4602B080BD00E100E090B583B052
:10314C0000AF02003960FB1D1A70FB1D1B787F2B32
:10315C0028D82F4AFB1D1B785BB29B08C0339B0001
:10316C009B58FA1D1278110003220A40D200FF214D
:10317C0091400A00D2431A4011003B689B01FF2288
:10318C001A40FB1D1B78180003230340DB009A40F8
:10319C001F48FB1D1B785BB29B080A43C0339B0086
:1031AC001A5031E01B4AFB1D1B7819000F230B40F2
:1031BC00083B9B0806339B00D31804331B68FA1D8D
:1031CC001278110003220A40D200FF2191400A001C
:1031DC00D2431A4011003B689B01FF221A40FB1D91
:1031EC001B78180003230340DB009A400948FB1DA1
:1031FC001B781C000F232340083B9B080A43063313
:10320C009B00C31804331A60C046BD4603B090BD82
:10321C0000E100E000ED00E080B582B000AF786026
:10322C007B685A1E80235B049A4201D3012310E071
:10323C000A4B7A68013A5A6001235B420321180059
:10324C00FFF77CFF054B00229A60044B07221A60A3
:10325C0000231800BD4602B080BDC04610E000E05F
:10326C0080B584B000AFB9607A600F217B18021C66
:10327C001A70BA687B181B785BB211001800FFF744
:10328C005DFFC046BD4604B080BD80B582B000AFC6
:10329C000200FB1D1A70FB1D1B785BB21800FFF7B8
:1032AC0033FFC046BD4602B080BD80B582B000AFD2
:1032BC0078607B681800FFF7AFFF03001800BD466D
:1032CC0002B080BD80B586B000AF78603960002355
:1032DC007B6147E13B681B6801217A6991400A00D8
:1032EC001340FB60FB68002B00D138E13B685B6846
:1032FC0003221340012B05D03B685B68032213406B
:10330C00022B30D17B689B683B617B695B0003229D
:10331C009A401300DA433B6913403B613B68DA681F
:10332C007B695B009A4013003A6913433B617B68ED
:10333C003A699A607B685B683B6101227B699A40C1
:10334C001300DA433B6913403B613B685B681B0924
:10335C0001221A407B699A4013003A6913433B617E
:10336C007B683A695A603B685B6803221340032B05
:10337C0017D07B68DB683B617B695B0003229A405A
:10338C001300DA433B6913403B613B689A687B69E5
:10339C005B009A4013003A6913433B617B683A69BE
:1033AC00DA603B685B6803221340022B23D17B69F4
:1033BC00DA087B6808329200D3583B617B6907229C
:1033CC0013409B000F229A401300DA433B691340D1
:1033DC003B613B681A697B6907210B409B009A4053
:1033EC0013003A6913433B617B69DA087B68083246
:1033FC0092003969D1507B681B683B617B695B002B
:10340C0003229A401300DA433B6913403B613B684B
:10341C005B6803221A407B695B009A4013003A698F
:10342C0013433B617B683A691A603B685A68C02356
:10343C009B02134000D192E0504A7B699B081833E1
:10344C009B009B583B617B6903221340DB000F22DE
:10345C009A401300DA433B6913403B617A68A0231E
:10346C00DB059A4213D07B68454A93420DD07B68AA
:10347C00444A934207D07B68434A934201D10323C9
:10348C0006E0052304E0022302E0012300E0002310
:10349C007A6903210A40D20093403A6913433B6195
:1034AC0036497B699B0818339B003A695A50334B59
:1034BC001B683B61FB68DA433B6913403B613B682B
:1034CC005A6880235B03134003D03A69FB681343AB
:1034DC003B612A4B3A691A60284B5B683B61FB687D
:1034EC00DA433B6913403B613B685A6880239B037A
:1034FC00134003D03A69FB6813433B611F4B3A6995
:10350C005A601E4A8423D3583B61FB68DA433B69FB
:10351C0013403B613B685A6880239B02134003D0E5
:10352C003A69FB6813433B61144984223B698B5015
:10353C00124A8023D3583B61FB68DA433B69134042
:10354C003B613B685A6880235B02134003D03A69A5
:10355C00FB6813433B61094980223B698B507B69B3
:10356C0001337B613B681A687B69DA40131E00D01B
:10357C00B0E6C046C046BD4606B080BD001802404D
:10358C000004005000080050000C005080B584B0BE
:10359C0000AF78600A00BB1C1A807B681B69BA1CE0
:1035AC001288134004D00F23FB1801221A7003E079
:1035BC000F23FB1800221A700F23FB181B7818001E
:1035CC00BD4604B080BD80B582B000AF7860080005
:1035DC001100BB1C021C1A807B1C0A1C1A707B1C61
:1035EC001B78002B04D0BB1C1A887B689A6103E003
:1035FC00BB1C1A887B689A62C046BD4602B080BD6F
:10360C0080B582B000AF78607B68002B01D10123BC
:10361C0082E07B6841229B5CDBB2002B07D17B688C
:10362C004022002199547B681800FFF79FFA7B68B1
:10363C004122242199547B681B681A687B681B689B
:10364C0001218A431A607B685A687B681B6834497D
:10365C000A401A617B681B689A687B681B68314951
:10366C000A409A607B68DB68012B08D17B689A68FA
:10367C007B681B68802109020A439A6007E07B681B
:10368C009A687B681B68842109020A439A607B68EC
:10369C00DB68022B04D17B681B68802212015A6004
:1036AC007B681B685A687B681B681F490A435A6011
:1036BC007B681B68DA687B681B681A490A40DA6009
:1036CC007B681A697B685B691A4311007B689B698C
:1036DC001A027B681B680A43DA607B68D9697B68CD
:1036EC001A6A7B681B680A431A607B681B681A6835
:1036FC007B681B6801210A431A607B6800225A64AC
:10370C007B684122202199547B6800221A637B68D4
:10371C0042220021995400231800BD4602B080BDFE
:10372C00FFFFFFF0FF7FFFFF0080000280B582B03B
:10373C0000AF786039607B6841229B5CDBB2202B48
:10374C0038D17B6840229B5C012B01D1022332E0F3
:10375C007B684022012199547B6841222421995491
:10376C007B681B681A687B681B6801218A431A6096
:10377C007B681B681A687B681B6811490A401A60D1
:10378C007B681B6819687B681B683A680A431A6077
:10379C007B681B681A687B681B6801210A431A60E6
:1037AC007B684122202199547B6840220021995446
:1037BC00002300E002231800BD4602B080BDC046C5
:1037CC00FFEFFFFF80B584B000AF786039607B6895
:1037DC0041229B5CDBB2202B39D17B6840229B5C65
:1037EC00012B01D1022333E07B6840220121995443
:1037FC007B684122242199547B681B681A687B687A
:10380C001B6801218A431A607B681B681B68FB607C
:10381C00FB68114A1340FB603B681B02FA681343B8
:10382C00FB607B681B68FA681A607B681B681A6807
:10383C007B681B6801210A431A607B6841222021A6
:10384C0099547B68402200219954002300E0022304
:10385C001800BD4604B080BDFFF0FFFF80B584B0FA
:10386C0000AF7860194B1B68194A13401900174BAD
:10387C007A680A431A607A6880239B009A421FD1A7
:10388C00144B1A6813005B009B185B00124918005C
:10389C00FCF74EFC03000133FB6008E0FB68002BD7
:1038AC0003D0FB68013BFB6001E0032309E0074BFD
:1038BC005A698023DB001A408023DB009A42EDD04A
:1038CC0000231800BD4604B080BDC0460070004007
:1038DC00FFF9FFFF1800002040420F0080B500AF39
:1038EC00034B9A68E023DB0113401800BD4680BDF2
:1038FC000010024080B588B000AF78607B68002B68
:10390C0001D10123FEE27B681B680122134000D128
:10391C007CE0C34B9B6838221340BB61C04BDB6817
:10392C00032213407B61BB69102B02D17B69032BF3
:10393C0002D0BB69082B0BD1B94B1A6880239B02B0
:10394C00134062D07B685B68002B5ED10123D9E207
:10395C007B685A6880235B029A4207D1B04B1A6885
:10396C00AF4B802149020A431A6020E07B685A68F9
:10397C00A023DB029A420ED1A94B1A68A84B8021D6
:10398C00C9020A431A60A64B1A68A54B802149024A
:10399C000A431A600BE0A24B1A68A14BA1490A40DA
:1039AC001A609F4B1A689E4B9F490A401A607B68AD
:1039BC005B68002B14D0FFF779FB03003B6108E038
:1039CC00FFF774FB02003B69D31A642B01D9032364
:1039DC0098E2934B1A6880239B021340F0D015E0B9
:1039EC00FFF764FB03003B6108E0FFF75FFB02009D
:1039FC003B69D31A642B01D9032383E2884B1A68E1
:103A0C0080239B021340F0D100E0C0467B681B680A
:103A1C000222134000D199E0814B9B68382213405D
:103A2C00BB617F4BDB68032213407B61BB69102BAE
:103A3C0002D17B69022B02D0BB69002B35D1784BAC
:103A4C001A688023DB00134005D07B68DB68002BF1
:103A5C0001D1012356E2724B5B68744A1340190082
:103A6C007B685B691A026E4B0A435A60BB69002B78
:103A7C0012D16B4B1B686E4A134019007B681A6994
:103A8C00674B0A431A60664B1B68DB0A072213401C
:103A9C00684ADA40684B1A60684B1B681800FFF7DD
:103AAC00A9FA031E51D001232CE27B68DB68002BA2
:103ABC0030D05B4B1B685E4A134019007B681A6957
:103ACC00574B0A431A60564B1A68554B80214900D4
:103ADC000A431A60FFF7EAFA03003B6108E0FFF7BC
:103AEC00E5FA02003B69D31A022B01D9032309E240
:103AFC004B4B1A688023DB001340F0D0484B5B68BB
:103B0C004A4A134019007B685B691A02444B0A430A
:103B1C005A601BE0424B1A68414B49490A401A60F3
:103B2C00FFF7C4FA03003B6108E0FFF7BFFA02009D
:103B3C003B69D31A022B01D90323E3E1384B1A68F2
:103B4C008023DB001340F0D100E0C0467B681B688B
:103B5C000822134047D0324B9B6838221340182B55
:103B6C000AD12F4B1B6E022213403CD07B689B6901
:103B7C00002B38D10123C5E17B689B69002B19D040
:103B8C00274B1A6E264B01210A431A66FFF78EFA51
:103B9C0003003B6108E0FFF789FA02003B69D31A86
:103BAC00022B01D90323ADE11D4B1B6E02221340E6
:103BBC00F1D018E01A4B1A6E194B01218A431A6680
:103BCC00FFF774FA03003B6108E0FFF76FFA02009D
:103BDC003B69D31A022B01D9032393E1104B1B6EC3
:103BEC0002221340F1D17B681B680422134000D1E0
:103BFC00C6E01F23FB1800221A70094B9B68382261
:103C0C001340202B1ED1064BDB6D0222134000D13A
:103C1C00B6E07B689B68002B00D0B1E0012371E11A
:103C2C0000100240FFFFFEFFFFFFFBFFFF80FFFFC6
:103C3C00FFC7FFFF0024F400180000201C00002028
:103C4C00FFFEFFFFB14BDA6B80235B05134001D104
:103C5C00012300E00023002B11D0AC4BDA6BAB4BF3
:103C6C00802149050A43DA63A84BDA6B80235B0594
:103C7C001340FB60FB681F23FB1801221A70A44B36
:103C8C001A6880235B0013401AD1A14B1A68A04B11
:103C9C00802149000A431A60FFF708FA03003B61D0
:103CAC0008E0FFF703FA02003B69D31A022B01D993
:103CBC00032327E1964B1A6880235B001340F0D056
:103CCC007B689B68012B06D1904BDA6D8F4B0121E1
:103CDC000A43DA651CE07B689B68052B0CD18B4B87
:103CEC00DA6D8A4B04210A43DA65884BDA6D874B0F
:103CFC0001210A43DA650BE0844BDA6D834B012119
:103D0C008A43DA65814BDA6D804B04218A43DA658C
:103D1C007B689B68002B14D0FFF7C8F903003B614C
:103D2C0009E0FFF7C3F902003B69D31A794A9342C1
:103D3C0001D90323E6E0754BDB6D02221340F0D072
:103D4C0013E0FFF7B3F903003B6109E0FFF7AEF9AD
:103D5C0002003B69D31A6F4A934201D90323D1E085
:103D6C006A4BDB6D02221340F0D11F23FB181B782A
:103D7C00012B05D1654BDA6B644B67490A40DA635A
:103D8C007B68DB69002B00D1BBE0604B9B68382261
:103D9C001340102B00D17BE07B68DB69022B56D1E2
:103DAC005A4B1A68594B5D490A401A60FFF77EF965
:103DBC0003003B6108E0FFF779F902003B69D31A75
:103DCC00022B01D903239DE0504B1A6880239B04DE
:103DDC001340F0D14D4BDB68514A134019007B68FE
:103DEC001A6A7B685B6A1A437B689B6A1B021A43DC
:103DFC007B68DB6A1A437B681B6B1A437B685B6BC3
:103E0C001A43424B0A43DA60404B1A683F4B8021FD
:103E1C0049040A431A603D4BDA683C4B8021490542
:103E2C000A43DA60FFF742F903003B6108E0FFF751
:103E3C003DF902003B69D31A022B01D9032361E03F
:103E4C00324B1A6880239B041340F0D059E02F4B5F
:103E5C001A682E4B31490A401A60FFF727F9030004
:103E6C003B6108E0FFF722F902003B69D31A022BF1
:103E7C0001D9032346E0254B1A6880239B04134089
:103E8C00F0D1224BDA68214B26490A40DA6038E03F
:103E9C007B68DB69012B01D1012333E01B4BDB6811
:103EAC007B617B6903221A407B681B6A9A4226D18C
:103EBC007B6970221A407B685B6A9A421FD17A69CF
:103ECC00FE23DB011A407B689B6A1B029A4216D1C7
:103EDC007A69F8239B031A407B68DB6A9A420ED1FD
:103EEC007A69E0231B051A407B681B6B9A4206D14A
:103EFC007B695B0F5A077B685B6B9A4201D001238D
:103F0C0000E000231800BD4608B080BD0010024040
:103F1C000070004088130000FFFFFFEFFFFFFFFE63
:103F2C008C80C111FCFFFEEE80B584B000AF7860D0
:103F3C0039607B68002B01D10123E9E0764B1B68CB
:103F4C00072213403A689A421ED9734B1B6807220A
:103F5C0093431900704B3A680A431A60FFF7A6F8AE
:103F6C000300FB6009E0FFF7A1F80200FB68D31A1D
:103F7C006A4A934201D90323CAE0674B1B680722A4
:103F8C0013403A689A42EED17B681B6802221340B8
:103F9C0015D07B681B680422134006D0604B9A68CE
:103FAC005F4BE021C9010A439A605D4B9B685D4AF7
:103FBC00134019007B689A68594B0A439A607B68D6
:103FCC001B680122134057D07B685B68012B07D11B
:103FDC00534B1A6880239B0213402BD1012397E08B
:103FEC007B685B68022B07D14D4B1A6880239B04BE
:103FFC0013401FD101238BE07B685B68002B07D13A
:10400C00474B1A688023DB00134013D101237FE058
:10401C007B685B68032B06D1414B1B6E022213405D
:10402C0008D1012374E03E4BDB6D0222134001D119
:10403C0001236DE03A4B9B680722934319007B6880
:10404C005A68374B0A439A60FFF730F80300FB605D
:10405C0009E0FFF72BF80200FB68D31A2F4A9342B2
:10406C0001D9032354E02E4B9B6838221A407B68FD
:10407C005B68DB009A42ECD1274B1B68072213408C
:10408C003A689A421ED2244B1B68072293431900AC
:10409C00214B3A680A431A60FFF708F80300FB60EB
:1040AC0009E0FFF703F80200FB68D31A1B4A93429E
:1040BC0001D903232CE0184B1B68072213403A68E4
:1040CC009A42EED17B681B680422134009D0144B32
:1040DC009B68154A134019007B68DA68104B0A4339
:1040EC009A6000F029F801000D4B9B681B0A0F2207
:1040FC001A400E4B9200D3581F2213400A00DA408C
:10410C000B4B1A600B4B1B681800FEF773FF030078
:10411C001800BD4604B080BD00200240881300008A
:10412C0000100240FFF0FFFFFF8FFFFFB88900086F
:10413C00180000201C00002080B586B000AF3C4B5E
:10414C009B68382213400FD1394B1B68DB0A0722BE
:10415C00134001229A4013003B6039683548FBF745
:10416C00E7FF03003B615DE0314B9B683822134055
:10417C00082B02D1304B3B6154E02D4B9B6838220D
:10418C001340102B38D12A4BDB6803221340FB6001
:10419C00274BDB681B09072213400133BB60FB680C
:1041AC00032B0DD1B9682448FBF7C2FF030019009B
:1041BC001F4BDB681B0A7F2213404B437B610DE0D6
:1041CC00B9681C48FBF7B4FF03001900184BDB68F7
:1041DC001B0A7F2213404B437B61C046144BDB68A8
:1041EC005B0F0722134001337B6079687869FBF71A
:1041FC009FFF03003B6115E00D4B9B683822134079
:10420C00202B03D180231B023B610BE0084B9B68E6
:10421C0038221340182B03D1FA23DB013B6101E058
:10422C0000233B613B691800BD4606B080BDC0460B
:10423C00001002400024F40000127A0080B500AF98
:10424C00024B1B681800BD4680BDC04618000020FC
:10425C00B0B500AFFFF7F2FF0400FFF73FFB030020
:10426C001A0B054B9200D3581F221340DC4023003D
:10427C001800BD46B0BDC046F889000880B582B0B4
:10428C0000AF78607B68002B01D101234AE07B688A
:10429C003D229B5CDBB2002B07D17B683C220021CA
:1042AC0099547B681800FEF7ADFC7B683D22022117
:1042BC0099547B681A687B6804331900100000F06D
:1042CC0021FD7B684822012199547B683E22012103
:1042DC0099547B683F22012199547B68402201212B
:1042EC0099547B684122012199547B684222012117
:1042FC0099547B684322012199547B684422012103
:10430C0099547B684522012199547B6846220121EE
:10431C0099547B684722012199547B683D220121E5
:10432C00995400231800BD4602B080BD80B582B000
:10433C0000AF78607B68002B01D101234AE07B68D9
:10434C003D229B5CDBB2002B07D17B683C22002119
:10435C0099547B68180000F041F87B683D220221DB
:10436C0099547B681A687B6804331900100000F0BC
:10437C00C9FC7B684822012199547B683E220121AB
:10438C0099547B683F22012199547B68402201217A
:10439C0099547B684122012199547B684222012166
:1043AC0099547B684322012199547B684422012152
:1043BC0099547B684522012199547B68462201213E
:1043CC0099547B684722012199547B683D22012135
:1043DC00995400231800BD4602B080BD80B582B050
:1043EC0000AF7860C046BD4602B080BD80B584B0D9
:1043FC0000AF786039603B68002B08D17B683E22A7
:10440C009B5CDBB2013B5A1E9341DBB237E03B684D
:10441C00042B08D17B683F229B5CDBB2013B5A1E0C
:10442C009341DBB22BE03B68082B08D17B68402220
:10443C009B5CDBB2013B5A1E9341DBB21FE03B6835
:10444C000C2B08D17B6841229B5CDBB2013B5A1ED2
:10445C009341DBB213E03B68102B08D17B684222FE
:10446C009B5CDBB2013B5A1E9341DBB207E07B68DD
:10447C0043229B5CDBB2013B5A1E9341DBB2002B07
:10448C0001D0012381E03B68002B04D17B683E22E4
:10449C000221995423E03B68042B04D17B683F2212
:1044AC00022199541BE03B68082B04D17B68402205
:1044BC000221995413E03B680C2B04D17B684122F8
:1044CC00022199540BE03B68102B04D17B684222EB
:1044DC000221995403E07B684322022199547B68A2
:1044EC001B6839680122180000F0BAFF7B681B6852
:1044FC00284A934209D07B681B68274A934204D010
:10450C007B681B68254A934201D1012300E00023FC
:10451C00002B08D07B681B685A6C7B681B68802159
:10452C0009020A435A647B681B681A4A93420AD0F0
:10453C007B681A688023DB059A4204D07B681B6871
:10454C00174A934216D17B681B689B68154A134027
:10455C00FB60FB68062B16D0FA6880235B029A423C
:10456C0011D07B681B681A687B681B6801210A43A1
:10457C001A6008E07B681B681A687B681B6801215D
:10458C000A431A6000E0C04600231800BD4604B080
:10459C0080BDC046002C0140004401400048014051
:1045AC00000400400700010080B582B000AF7860C5
:1045BC0039607B681B6839680022180000F050FFD6
:1045CC007B681B68354A934209D07B681B68344A68
:1045DC00934204D07B681B68324A934201D1012379
:1045EC0000E00023002B13D07B681B681B6A2E4A4B
:1045FC0013400DD17B681B681B6A2C4A134007D1F2
:10460C007B681B685A6C7B681B6829490A405A6492
:10461C007B681B681B6A244A13400DD17B681B689E
:10462C001B6A224A134007D17B681B681A687B6897
:10463C001B6801218A431A603B68002B04D17B68FC
:10464C003E220121995423E03B68042B04D17B6862
:10465C003F22012199541BE03B68082B04D17B6855
:10466C0040220121995413E03B680C2B04D17B6848
:10467C004122012199540BE03B68102B04D17B683B
:10468C0042220121995403E07B6843220121995471
:10469C0000231800BD4602B080BDC046002C01406E
:1046AC000044014000480140111100004404000086
:1046BC00FF7FFFFF80B582B000AF78607B681B681E
:1046CC001B6902221340022B24D17B681B68DB6818
:1046DC0002221340022B1DD17B681B68032252421D
:1046EC001A617B6801221A777B681B689B6903221D
:1046FC00134004D07B68180000F0ECFA07E07B68EC
:10470C00180000F0DFFA7B68180000F0EBFA7B6809
:10471C0000221A777B681B681B6904221340042B48
:10472C0025D17B681B68DB6804221340042B1ED147
:10473C007B681B68052252421A617B6802221A7739
:10474C007B681B689A69C0239B00134004D07B686C
:10475C00180000F0BFFA07E07B68180000F0B2FA0E
:10476C007B68180000F0BEFA7B6800221A777B6821
:10477C001B681B6908221340082B24D17B681B681B
:10478C00DB6808221340082B1DD17B681B680922AB
:10479C0052421A617B6804221A777B681B68DB69BA
:1047AC000322134004D07B68180000F093FA07E052
:1047BC007B68180000F086FA7B68180000F092FA0B
:1047CC007B6800221A777B681B681B6910221340D8
:1047DC00102B25D17B681B68DB6810221340102B33
:1047EC001ED17B681B68112252421A617B68082219
:1047FC001A777B681B68DA69C0239B00134004D0CE
:10480C007B68180000F066FA07E07B68180000F07F
:10481C0059FA7B68180000F065FA7B6800221A7759
:10482C007B681B681B6901221340012B0FD17B682D
:10483C001B68DB6801221340012B08D17B681B68C5
:10484C00022252421A617B681800FEF73FF97B681E
:10485C001B681B6980221340802B0FD17B681B685F
:10486C00DB6880221340802B08D17B681B68812277
:10487C0052421A617B68180000F086FE7B681B6848
:10488C001A6980235B001A4080235B009A420ED188
:10489C007B681B68DB6880221340802B07D17B6808
:1048AC001B681C4A1A617B68180000F075FE7B6857
:1048BC001B681B6940221340402B0FD17B681B687F
:1048CC00DB6840221340402B08D17B681B684122D7
:1048DC0052421A617B68180000F00CFA7B681B6866
:1048EC001B6920221340202B0FD17B681B68DB68CF
:1048FC0020221340202B08D17B681B6821225242B6
:10490C001A617B68180000F037FEC046BD4602B045
:10491C0080BDC046FFFEFFFF80B586B000AFF860DB
:10492C00B9607A601723FB1800221A70FB683C22CE
:10493C009B5C012B01D10223E5E0FB683C220121A9
:10494C0099547B68142B00D9D1E07B689A00704B8A
:10495C00D3181B689F46FB681B68BA6811001800C7
:10496C0000F046FAFB681B689A69FB681B68082113
:10497C000A439A61FB681B689A69FB681B680421EF
:10498C008A439A61FB681B689969BB681A69FB6862
:10499C001B680A439A61AFE0FB681B68BA68110098
:1049AC00180000F0A5FAFB681B689A69FB681B6885
:1049BC00802109010A439A61FB681B689A69FB68AC
:1049CC001B6854490A409A61FB681B689969BB686B
:1049DC001B691A02FB681B680A439A618CE0FB682E
:1049EC001B68BA681100180000F000FBFB681B681C
:1049FC00DA69FB681B6808210A43DA61FB681B68EB
:104A0C00DA69FB681B6804218A43DA61FB681B685E
:104A1C00D969BB681A69FB681B680A43DA616BE0E9
:104A2C00FB681B68BA681100180000F061FBFB689A
:104A3C001B68DA69FB681B68802109010A43DA618B
:104A4C00FB681B68DA69FB681B6832490A40DA614B
:104A5C00FB681B68D969BB681B691A02FB681B6879
:104A6C000A43DA6148E0FB681B68BA681100180059
:104A7C0000F0A2FBFB681B685A6DFB681B680821E1
:104A8C000A435A65FB681B685A6DFB681B68042156
:104A9C008A435A65FB681B68596DBB681A69FB68C9
:104AAC001B680A435A6527E0FB681B68BA6811004B
:104ABC00180000F0DBFBFB681B685A6DFB681B6879
:104ACC00802109010A435A65FB681B685A6DFB6813
:104ADC001B6810490A405A65FB681B68596DBB6816
:104AEC001B691A02FB681B680A435A6504E017230A
:104AFC00FB1801221A70C046FB683C220021995415
:104B0C001723FB181B781800BD4606B080BDC046A5
:104B1C00188A0008FFFBFFFF80B584B000AF7860F7
:104B2C0039600F23FB1800221A707B683C229B5CB7
:104B3C00012B01D10223BCE07B683C22012199545A
:104B4C007B683D22022199547B681B689B68BB6083
:104B5C00BB685A4A1340BB60BB68594A1340BB60E0
:104B6C007B681B68BA689A603B681B68802292015C
:104B7C00934240D080229201934200D988E0802257
:104B8C005201934200D188E080225201934200D915
:104B9C007EE0702B18D000D97AE0602B4FD000D972
:104BAC0076E0502B3BD000D972E0402B57D000D987
:104BBC006EE0302B63D06BD8202B60D068D8002BE4
:104BCC005DD0102B5BD063E07B6818683B689968FC
:104BDC003B685A683B68DB6800F022FC7B681B680A
:104BEC009B68BB60BB6877221343BB607B681B6808
:104BFC00BA689A6052E07B6818683B6899683B68B1
:104C0C005A683B68DB6800F00BFC7B681B689A6891
:104C1C007B681B688021C9010A439A603EE07B686F
:104C2C0018683B6859683B68DB681A0000F07CFB2D
:104C3C007B681B685021180000F0D6FB2EE07B68C7
:104C4C0018683B6859683B68DB681A0000F09AFBEF
:104C5C007B681B686021180000F0C6FB1EE07B68B7
:104C6C0018683B6859683B68DB681A0000F05CFB0D
:104C7C007B681B684021180000F0B6FB0EE07B68D7
:104C8C001A683B681B681900100000F0ADFB05E0CA
:104C9C000F23FB1801221A7000E0C0467B683D22EE
:104CAC00012199547B683C22002199540F23FB1855
:104CBC001B781800BD4604B080BDC04688FFCEFFEF
:104CCC00FF00FFFF80B582B000AF7860C046BD46E4
:104CDC0002B080BD80B582B000AF7860C046BD46E2
:104CEC0002B080BD80B582B000AF7860C046BD46D2
:104CFC0002B080BD80B582B000AF7860C046BD46C2
:104D0C0002B080BD80B584B000AF786039607B683C
:104D1C001B68FB607B68304A934208D07A6880231A
:104D2C00DB059A4203D07B682C4A934208D1FB687E
:104D3C0070229343FB603B685B68FA681343FB602B
:104D4C007B68254A934214D07A688023DB059A420B
:104D5C000FD07B68214A93420BD07B68204A934248
:104D6C0007D07B681F4A934203D07B681E4A93424C
:104D7C0008D1FB681D4A1340FB603B68DB68FA688E
:104D8C001343FB60FB68802293431A003B685B690A
:104D9C001343FB607B68FA681A603B689A687B680F
:104DAC00DA623B681A687B689A627B680A4A9342AB
:104DBC0007D07B680B4A934203D07B680A4A934224
:104DCC0003D13B681A697B681A637B6801225A61BC
:104DDC00C046BD4604B080BD002C0140000400401C
:104DEC00002000400044014000480140FFFCFFFF50
:104DFC0080B586B000AF786039607B681B6A012291
:104E0C0093431A007B681A627B681B6A7B617B6820
:104E1C005B683B617B689B69FB60FB682E4A1340B7
:104E2C00FB60FB6803229343FB603B681B68FA68DA
:104E3C001343FB607B69022293437B613B689B6855
:104E4C007A6913437B617B68244A934207D07B6861
:104E5C00234A934203D07B68224A93420CD17B694C
:104E6C00082293437B613B68DB687A6913437B615F
:104E7C007B69042293437B617B68184A934207D079
:104E8C007B68174A934203D07B68164A934211D130
:104E9C003B69154A13403B613B69144A13403B6123
:104EAC003B685B693A6913433B613B689B693A69B0
:104EBC0013433B617B683A695A607B68FA689A6174
:104ECC003B685A687B685A637B687A691A62C04689
:104EDC00BD4606B080BDC0468FFFFEFF002C0140D2
:104EEC000044014000480140FFFEFFFFFFFDFFFFB3
:104EFC0080B586B000AF786039607B681B6A102281
:104F0C0093431A007B681A627B681B6A7B617B681F
:104F1C005B683B617B689B69FB60FB682C4A1340B8
:104F2C00FB60FB682B4A1340FB603B681B681B0251
:104F3C00FA681343FB607B69202293437B613B68D7
:104F4C009B681B017A6913437B617B68224A9342FD
:104F5C000DD17B69802293437B613B68DB681B012D
:104F6C007A6913437B617B69402293437B617B6845
:104F7C00194A934207D07B68184A934203D07B6846
:104F8C00174A934213D13B69164A13403B613B6964
:104F9C00154A13403B613B685B699B003A691343BC
:104FAC003B613B689B699B003A6913433B617B689F
:104FBC003A695A607B68FA689A613B685A687B6800
:104FCC009A637B687A691A62C046BD4606B080BD9A
:104FDC00FF8FFFFEFFFCFFFF002C0140004401404F
:104FEC0000480140FFFBFFFFFFF7FFFF80B586B0D5
:104FFC0000AF786039607B681B6A334A1A407B6863
:10500C001A627B681B6A7B617B685B683B617B68AF
:10501C00DB69FB60FB682D4A1340FB60FB680322D5
:10502C009343FB603B681B68FA681343FB607B6926
:10503C00274A13407B613B689B681B027A691343C8
:10504C007B617B68234A93420DD17B69224A1340D2
:10505C007B613B68DB681B027A6913437B617B696C
:10506C001E4A13407B617B681A4A934207D07B68C7
:10507C001B4A934203D07B681A4A934213D13B6973
:10508C00194A13403B613B69184A13403B613B682A
:10509C005B691B013A6913433B613B689B691B01CC
:1050AC003A6913433B617B683A695A607B68FA68DA
:1050BC00DA613B685A687B68DA637B687A691A62E2
:1050CC00C046BD4606B080BDFFFEFFFF8FFFFEFF52
:1050DC00FFFDFFFF002C0140FFF7FFFFFFFBFFFF71
:1050EC000044014000480140FFEFFFFFFFDFFFFFDE
:1050FC0080B586B000AF786039607B681B6A264A41
:10510C001A407B681A627B681B6A3B617B685B6830
:10511C007B617B68DB69FB60FB68204A1340FB60AA
:10512C00FB681F4A1340FB603B681B681B02FA6854
:10513C001343FB603B691B4A13403B613B689B6814
:10514C001B033A6913433B617B68174A934207D0B0
:10515C007B68164A934203D07B68154A934209D167
:10516C007B69144A13407B613B685B699B017A69DC
:10517C0013437B617B687A695A607B68FA68DA61F1
:10518C003B685A687B681A647B683A691A62C04645
:10519C00BD4606B080BDC046FFEFFFFFFF8FFFFE90
:1051AC00FFFCFFFFFFDFFFFF002C0140004401402C
:1051BC0000480140FFBFFFFF80B586B000AF7860AC
:1051CC0039607B681B6A234A1A407B681A627B68C9
:1051DC001B6A3B617B685B687B617B685B6DFB601A
:1051EC00FB681D4A1340FB603B681B68FA6813435D
:1051FC00FB603B69194A13403B613B689B681B048D
:10520C003A6913433B617B68154A934207D07B682C
:10521C00144A934203D07B68134A934209D17B69A9
:10522C000C4A13407B613B685B691B027A69134330
:10523C007B617B687A695A607B68FA685A653B685F
:10524C005A687B689A657B683A691A62C046BD46A3
:10525C0006B080BDFFFFFEFF8FFFFEFFFFFFFDFFCF
:10526C00002C0140004401400048014080B586B04C
:10527C0000AF786039607B681B6A244A1A407B68EF
:10528C001A627B681B6A3B617B685B687B617B682D
:10529C005B6DFB60FB681E4A1340FB603B681B6840
:1052AC001B02FA681343FB603B691A4A13403B61CB
:1052BC003B689B681B053A6913433B617B68164A44
:1052CC00934207D07B68154A934203D07B68144AFB
:1052DC00934209D17B69134A13407B613B685B693C
:1052EC009B027A6913437B617B687A695A607B689D
:1052FC00FA685A653B685A687B68DA657B683A6974
:10530C001A62C046BD4606B080BDC046FFFFEFFF27
:10531C00FF8FFFFEFFFFDFFF002C01400044014028
:10532C0000480140FFFFFBFF80B586B000AFF8607E
:10533C00B9607A60FB681B6A7B61FB681B6A01229F
:10534C0093431A00FB681A62FB689B693B613B69DB
:10535C00F02293433B617B681B013A6913433B6129
:10536C007B690A2293437B617A69BB6813437B6137
:10537C00FB683A699A61FB687A691A62C046BD4655
:10538C0006B080BD80B586B000AFF860B9607A60B9
:10539C00FB681B6A102293431A00FB681A62FB68B5
:1053AC009B697B61FB681B6A3B617B690D4A1340FF
:1053BC007B617B681B037A6913437B613B69A02289
:1053CC0093433B61BB681B013A6913433B61FB6828
:1053DC007A699A61FB683A691A62C046BD4606B0A2
:1053EC0080BDC046FF0FFFFF80B584B000AF786072
:1053FC0039607B689B68FB60FB68084A1340FB6064
:10540C003A68FB68134307221343FB607B68FA6816
:10541C009A60C046BD4604B080BDC0468FFFCFFF2A
:10542C0080B586B000AFF860B9607A603B60FB680D
:10543C009B687B617B69094A13407B613B681A025C
:10544C007B681A43BB6813437A6913437B61FB681F
:10545C007A699A60C046BD4606B080BDFF00FFFF6A
:10546C0080B586B000AFF860B9607A60BB681F2267
:10547C00134001229A4013007B61FB681B6A7A6916
:10548C00D2431A40FB681A62FB681A6ABB681F2178
:10549C000B40796899400B001A43FB681A62C046AE
:1054AC00BD4606B080BD000080B584B000AF78600A
:1054BC0039607B683C229B5C012B01D1022350E0BC
:1054CC007B683C22012199547B683D22022199542E
:1054DC007B681B685B68FB607B681B689B68BB60B8
:1054EC007B681B68214A934208D1FB68204A134011
:1054FC00FB603B685B68FA681343FB60FB687022D7
:10550C009343FB603B681B68FA681343FB607B6842
:10551C001B68FA685A607B681B68144A93420AD06D
:10552C007B681A688023DB059A4204D07B681B6871
:10553C00104A93420CD1BB6880229343BB603B68FA
:10554C009B68BA681343BB607B681B68BA689A6037
:10555C007B683D22012199547B683C22002199549F
:10556C0000231800BD4604B080BDC046002C01408D
:10557C00FFFF0FFF0004004080B582B000AF7860E1
:10558C00C046BD4602B080BD80B582B000AF786029
:10559C00C046BD4602B080BD80B582B000AF786019
:1055AC00C046BD4602B080BD80B582B000AF786009
:1055BC007B68002B01D1012346E07B6888229B5835
:1055CC00002B07D17B688422002199547B6818003A
:1055DC00FDF792FB7B688822242199507B681B681D
:1055EC001A687B681B6801218A431A607B68180063
:1055FC0000F030F80300012B01D1012324E07B687B
:10560C009B6A002B03D07B68180000F09BFA7B6828
:10561C001B685A687B681B680D490A405A607B6896
:10562C001B689A687B681B682A218A439A607B688E
:10563C001B681A687B681B6801210A431A607B6827
:10564C00180000F033FB03001800BD4602B080BD0B
:10565C00FFB7FFFFB0B590B000AF78621A232022DD
:10566C009B18DB1900221A707B6A9A687B6A1B698B
:10567C001A437B6A5B691A437B6ADB691343FB63DE
:10568C007B6A1B681B68C44A134019007B6A1A6842
:10569C00FB6B0B4313607B6A1B685B68BF4A134050
:1056AC0018007B6AD9687B6A1A6803000B43536045
:1056BC007B6A9B69FB637B6A1B68B94A934204D083
:1056CC007B6A1B6AFA6B1343FB637B6A1B689B68E0
:1056DC00B44A134019007B6A1A68FB6B0B43936046
:1056EC007B6A1B68DB6A0F22934318007B6A596A3A
:1056FC007B6A1A6803000B43D3627B6A1B68AA4A55
:10570C00934231D1A94B5B6D03221340032B1DD067
:10571C0023D8022B0CD020D8002B02D0012B0ED07A
:10572C001BE01B2320229B18DB1900221A7071E04E
:10573C001B2320229B18DB1902221A706AE01B2300
:10574C0020229B18DB1904221A7063E01B232022F1
:10575C009B18DB1908221A705CE01B2320229B1873
:10576C00DB1910221A7055E07B6A1B68904A934231
:10577C0006D11B2320229B18DB1900221A7049E04A
:10578C007B6A1B68864A93423ED1884B5A6DC02374
:10579C001B011340C0221201934227D0C0221201D8
:1057AC0093422AD880221201934211D080221201F6
:1057BC00934222D8002B04D08022D20093420ED0E8
:1057CC001BE01B2320229B18DB1900221A7021E0FE
:1057DC001B2320229B18DB1902221A701AE01B23B0
:1057EC0020229B18DB1904221A7013E01B232022A1
:1057FC009B18DB1908221A700CE01B2320229B1823
:10580C00DB1910221A7005E01B2320229B18DB19D0
:10581C0010221A707B6A1B68614A934200D092E096
:10582C001B2320229B18DB191B78082B15D018DCA6
:10583C00042B0DD015DC002B02D0022B05D010E070
:10584C00FEF706FD03007B6314E05A4B7B6311E00B
:10585C00FEF772FC03007B630CE080231B027B636E
:10586C0008E000237B631A2320229B18DB190122FA
:10587C001A70C0467B6B002B00D147E17B6A5A6AD9
:10588C004D4B5200D35A1900786BFAF751FC0300B8
:10589C00BB627B6A5A6813005B009B18BA6A9A4217
:1058AC0005D37B6A5B681B03BA6A9A4206D91A2332
:1058BC0020229B18DB1901221A7027E17B6BBB613C
:1058CC000023FB617B6A5A6A3B4B5200D35A3B6103
:1058DC0000237B613A697B69B869F969FAF7DCFDE9
:1058EC0002000B00110E1D020D4314027B6A5B6853
:1058FC005B08BB600023FB60B868F968001969415C
:10590C007B6A5B683B6000237B603A687B68FAF7D4
:10591C00C3FD02000B0013003B633A6BC0239B00DA
:10592C009A4209D33A6B80235B039A4204D27B6A76
:10593C001B683A6BDA60E9E01A2320229B18DB190A
:10594C0001221A70E2E07B6ADA6980231B029A4218
:10595C0000D083E01B2320229B18DB191B78082B1B
:10596C0015D02BDC042B0DD028DC002B02D0022B05
:10597C0005D023E0FEF76CFC03007B6327E00D4BA6
:10598C007B6324E0FEF7D8FB03007B631FE08023DE
:10599C001B027B631BE0C046F369FFCFFFCFFFFF09
:1059AC0000800040FFF4FF1100380140001002405D
:1059BC00004400400024F4006C8A000800237B6340
:1059CC001A2320229B18DB1901221A70C0467B6B0C
:1059DC00002B00D19AE07B6A5A6A584B5200D35A7A
:1059EC001900786BFAF7A4FB03005A007B6A5B681A
:1059FC005B08D2187B6A5B6819001000FAF798FBF9
:105A0C0003003B633B6B0F2B21D93A6B80235B026A
:105A1C009A421CD23B6B9AB20E2020240319DB193C
:105A2C000F218A431A803B6B5B089BB20722134001
:105A3C0099B20319DB190219D21912880A431A8078
:105A4C007B6A1B680219D2191288DA605EE01A238D
:105A5C0020229B18DB1901221A7057E01B232022ED
:105A6C009B18DB191B78082B15D018DC042B0DD0D8
:105A7C0015DC002B02D0022B05D010E0FEF7E8FB62
:105A8C0003007B6314E02E4B7B6311E0FEF754FBA9
:105A9C0003007B630CE080231B027B6308E0002384
:105AAC007B631A2320229B18DB1901221A70C04633
:105ABC007B6B002B2AD07B6A5A6A204B5200D35A3C
:105ACC001900786BFAF734FB03001A007B6A5B68E9
